:020000040000fa
:080000000001040000000000f3
:020000040000fa
:04000800ae02000044
:020000040000fa
:04000c00c00200002e
:020000040000fa
:04001000d00200001a
:020000040000fa
:04001400b602000030
:020000040000fa
:04001800c80200001a
:020000040000fa
:04001c004804000094
:020000040000fa
:040020004804000090
:020000040000fa
:04002400480400008c
:020000040000fa
:040028004804000088
:020000040000fa
:04002c004804000084
:020000040000fa
:040030004804000080
:020000040000fa
:040034004402000082
:020000040000fa
:040038004804000078
:020000040000fa
:04003c004804000074
:020000040000fa
:040040004804000070
:020000040000fa
:04004400480400006c
:020000040000fa
:040048008002000032
:020000040000fa
:04004c004804000064
:020000040000fa
:040050004804000060
:020000040000fa
:040054003a0300006b
:020000040000fa
:04005800d8020000ca
:020000040000fa
:04005c004804000054
:020000040000fa
:040060004804000050
:020000040000fa
:04006400480400004c
:020000040000fa
:040068004804000048
:020000040000fa
:04006c004804000044
:020000040000fa
:040070004804000040
:020000040000fa
:04007400280200005e
:020000040000fa
:040078004804000038
:020000040000fa
:04007c004804000034
:020000040000fa
:040080004804000030
:020000040000fa
:04008400480400002c
:020000040000fa
:040088004804000028
:020000040000fa
:04008c004804000024
:020000040000fa
:040090004804000020
:020000040000fa
:04009400480400001c
:020000040000fa
:040098004804000018
:020000040000fa
:04009c004804000014
:020000040000fa
:0400a000ec0300006d
:020000040000fa
:0400a40096030000bf
:020000040000fa
:0400a8004804000008
:020000040000fa
:0400ac004804000004
:020000040000fa
:0400b0004804000000
:020000040000fa
:0400b40048040000fc
:020000040000fa
:0400b80048040000f8
:020000040000fa
:0400bc0048040000f4
:020000040000fa
:0400c00048040000f0
:020000040000fa
:0400c40048040000ec
:020000040000fa
:0400c80048040000e8
:020000040000fa
:0400cc0048040000e4
:020000040000fa
:0400d00048040000e0
:020000040000fa
:0400d40048040000dc
:020000040000fa
:0400d80048040000d8
:020000040000fa
:0400dc0048040000d4
:020000040000fa
:0400e00048040000d0
:020000040000fa
:0400e40048040000cc
:020000040000fa
:0400e80048040000c8
:020000040000fa
:0400ec0048040000c4
:020000040000fa
:0400f00048040000c0
:020000040000fa
:0400f40048040000bc
:020000040000fa
:0400f80048040000b8
:020000040000fa
:0400fc0048040000b4
:020000040000fa
:0401000048040000af
:020000040000fa
:0401040048040000ab
:020000040000fa
:0401080048040000a7
:020000040000fa
:04010c0048040000a3
:020000040000fa
:04011000480400009f
:020000040000fa
:04011400480400009b
:020000040000fa
:040118004804000097
:020000040000fa
:04011c004804000093
:020000040000fa
:040120003c0200009d
:020000040000fa
:04012400480400008b
:020000040000fa
:040128004804000087
:020000040000fa
:04012c00800300004c
:020000040000fa
:040130003204000095
:020000040000fa
:04013400480400007b
:020000040000fa
:040138004804000077
:020000040000fa
:04013c004804000073
:020000040000fa
:04014000480400006f
:020000040000fa
:04014400480400006b
:020000040000fa
:040148004804000067
:020000040000fa
:04014c004804000063
:020000040000fa
:04015000480400005f
:020000040000fa
:04015400480400005b
:020000040000fa
:040158004804000057
:020000040000fa
:04015c004804000053
:020000040000fa
:04016000480400004f
:020000040000fa
:04016400480400004b
:020000040000fa
:040168004804000047
:020000040000fa
:04016c004804000043
:020000040000fa
:04017000480400003f
:020000040000fa
:04017400480400003b
:020000040000fa
:040178004804000037
:020000040000fa
:04017c004804000033
:020000040000fa
:04018000480400002f
:020000040000fa
:04018400480400002b
:020000040000fa
:040188004804000027
:020000040000fa
:04018c004804000023
:020000040000fa
:04019000480400001f
:020000040000fa
:04019400480400001b
:020000040000fa
:040198004804000017
:020000040000fa
:04019c004804000013
:020000040000fa
:0401a000480400000f
:020000040000fa
:0401a400480400000b
:020000040000fa
:0401a8004804000007
:020000040000fa
:0401ac004804000003
:020000040000fa
:0401b00048040000ff
:020000040000fa
:0401b40048040000fb
:020000040000fa
:0401b80048040000f7
:020000040000fa
:0401bc0048040000f3
:020000040000fa
:0401c00048040000ef
:020000040000fa
:0401c40048040000eb
:020000040000fa
:0401c80048040000e7
:020000040000fa
:0401cc0048040000e3
:020000040000fa
:0401d00048040000df
:020000040000fa
:0401d40048040000db
:020000040000fa
:0401d80048040000d7
:020000040000fa
:0401dc0048040000d3
:020000040000fa
:0401e00048040000cf
:020000040000fa
:0401e40048040000cb
:020000040000fa
:0401e80048040000c7
:020000040000fa
:0401ec0048040000c3
:020000040000fa
:0401f00048040000bf
:020000040000fa
:0401f40048040000bb
:020000040000fa
:0401f80048040000b7
:020000040000fa
:0401fc0048040000b3
:020000040000fa
:100200006f2e21000e7f24000e01880000000000e8
:10021000000020000000e000020032000001200089
:100220002002880014000700e50107000000e0003c
:1002300003003a00e01d2600010020000200370004
:100240000000200001002000810f7000010032003a
:1002500014000700000020000000e000020032004f
:100260000000020000000000a06e0200000000007c
:100270000040da000000fe004440a900a04d20002c
:100280000000e00003003200002020009001880000
:100290004440a800000006008a1f78008b1f7800e9
:1002a00000000600a1028800800478000000eb0036
:1002b0001f003700e284440054a0b4009905ba003e
:1002c000e284440054a0b4009906ba00e2844400d9
:1002d00054a0b4000006eb00476fde00fd07b2003b
:1002e000ae018800636ce10003003a00eaff0700fa
:1002f0000000eb000e003700606ce10008003a00df
:10030000004deb000a05e800020039003420ec0043
:100310000af0a0008b05e900f9ff3e000400370059
:100320006168e100010032000086eb000b0007006d
:1003300019c7ba001905ba000e04e00003003a001c
:100340000a00e000dbff3a0000000600fe07b200f2
:10035000ae0288008a047800f5ff37000cd0a300b5
:10036000e20f4d001c00390089027800354dba00bb
:100370000a05e800020039003420ec000af0a00071
:100380008b05e9000f003200254dba000a05e80090
:10039000020039003420ec000af0a0008b05e900cf
:1003a000080032000c00e0000600320015cdba0053
:1003b0000a05e800020039003420ec000af0a00031
:1003c0008b05e9008984e80054a0b4000b00e0002c
:1003d000e2ff3a00000006009902ba00055d7800cd
:1003e0008b05e900f7ff3200c82ade00055d7800c2
:1003f0008b05e900f3ff32000c00e000f1ff320052
:1004000019ddba00eeff37002e5104000000000095
:10041000de0e0400000000000a0f040000000000cf
:10042000a810040000000000c2100400000000003a
:10043000f010040000000000fc190400000000009f
:10044000b0230400000000001c0b040000000000aa
:10045000801f78000000fa005004800068006000ef
:100460000000e000010032008a60a9000080fa006c
:100470004f007800004006000000fa008fc0a9007d
:100480000080fa00004006003600f800809fbe00a1
:10049000829fbe00849fbe00869fbe000000fa00bf
:1004a000004280000000e800004288000042800016
:1004b0000000e00002003200f13407004028ef00a5
:1004c000b02d2100104078008040e800b02d2100c0
:1004d00001487800a02d210011c0b3000148780028
:1004e0008860a9000080fa004f03be004f02be00e2
:1004f0004f01be004f00be003600f900004006006c
:100500003600f800809fbe00829fbe00849fbe0020
:10051000869fbe000000fa0010340700d02d210095
:10052000104078008040e800d02d2100014878007c
:10053000c02d210011c0b300014878008900a90036
:100540000080fa004f03be004f02be004f01be0004
:100550004f00be003600f900004006003600f800eb
:100560008020a9000000eb00063607003600f800e6
:10057000093607008040a90010002000013607005e
:100580003600f8008060a90020002000fd3507003b
:100590003600f8008080a90030002000f9350700ff
:1005a0003600f8008600a90070002000f53507002d
:1005b000809fbe000000fa00d16280000020200071
:1005c000008060000000e000020032009980a90075
:1005d000250037008980a9001e003700c062800016
:1005e000104078000080fb00e01c8800c0628000a2
:1005f0000000e800c0628800c1628000c0cd200019
:10060000808f500002003a00c0c52000c062880000
:10061000d06280000080a100d0628800c1628000aa
:10062000b0628000808f50000a003a000000000095
:10063000d11c800000102000008060000000e0005d
:10064000fbff3200d06280000090a000d0628800e2
:1006500005003700d11c80000020200000806000d1
:100660000000e000ddff32000080fa004f00be0015
:1006700000400600809fbe000000fa00180037000e
:1006800090628000f11c8000814078000148780071
:10069000906280000000e800906288009162800013
:1006a000b0dd2000808f500002003a00c0cd200055
:1006b00090628800d06280000010a100d0628800a3
:1006c00091628000a0628000808f500004003a0098
:1006d000d06280000000a000d062880004003700d3
:1006e000d01c8000610060000000e000e4ff3a00e0
:1006f0008960a9000080fa004f00be00004006009b
:10070000801f78000000fa00d01c800062006000aa
:100710000000e000010032009a23a9009020a90007
:100720000080fa004f00780000400600809fbe0065
:100730000000fa008142800000202000008060005c
:100740000000e000020032009be0a9001f0037001b
:100750008be0a9001800370070428000104078003c
:100760000080fb00901d8800704280000000e800bf
:10077000704288007142800020a52000808f5000c8
:1007800002003a00208520007042880080428000ec
:100790000080a10080428800714280006042800099
:1007a000808f500004003a00804280000090a0003a
:1007b0008042880005003700811d80000020200055
:1007c000008060000000e000e3ff32000080fa00db
:1007d0004f00be0000400600809fbe000000fa00ef
:1007e0001800370040428000a11d80008140780041
:1007f00001487800404280000000e8004042880044
:100800004142800020c52000808f500002003a0045
:1008100020a5200040428800804280000010a100f6
:10082000804288004142800050428000808f50000a
:1008300004003a00804280000000a000804288004e
:1008400004003700801d8000610060000000e000af
:10085000e4ff3a008bc0a9000080fa004f00be0000
:1008600000400600801f78000000fa00801d800014
:10087000620060000000e00001003200b023a90027
:100880009040a9000080fa004f0078000040060068
:100890000040da000000fe009803e20004003d0082
:1008a0009b43ab00020032009b03ab00feff320013
:1008b0000040da00feff37000a00fa0011002000b5
:1008c000b1bf9f00c0bf9f006a805700471007005c
:1008d0004fb897000080fa00000006000a00fa00f6
:1008e00051002000b1bf9f00c0bf9f006a80570029
:1008f000401007005fb897000080fa000000060073
:10090000889fbe0080047800209780000000e000ef
:1009100004003a000e0007000084eb000000e00035
:1009200008003500289780000900e000050032002b
:1009300009004400060007000000e00001003d003f
:100940000084eb00080078004f04be0000000600a1
:10095000800078000100e00003003a000000200061
:1009600020978800000005000080eb0002002000b6
:10097000828f500002003e00219788000000eb00ab
:10098000000006000600fa00000f7800110798002a
:100990002207980000000000811d80000010200048
:1009a000008060000000e000fbff32001e009000ad
:1009b000ae0090007f2c07000080fa0000000600c7
:1009c0000000050003f0a200889fbe008a9fbe00c1
:1009d0008c1f780011010700180133006450e100fa
:1009e0004f0032006420e1005200320003826c00ac
:1009f00007003b000905d0000306d000820f540019
:100a00000c065d0002003900020032008901780006
:100a1000030678008582550004003d000003fd00b8
:100a20008103fd008502ea008b854200840f72007d
:100a300002003b0060001000e08018006011b80068
:100a40000005eb007a28e1000a0039000600780072
:100a5000c75ddd00f707b200878075002d00370005
:100a6000828171000a017800610560008180d100f7
:100a70000080d3008502e900f9ff3b000604400036
:100a80008784480002003b0060041400e0841c00de
:100a90000988a300070032008a81710082817100f9
:100aa000610164008904d1000884d3008b05e8004b
:100ab000170037000978a30013003a000b00e0008c
:100ac000130034008b05e9000804440089844c00bd
:100ad0000a4474000978a3000d003a000b00e000fe
:100ae000070034008b05e9000804440089844c00a9
:100af00001003a000b0020000978a300f7ff320044
:100b00000001eb0002003700828171000a017800c9
:100b1000870007000cf0a70001f0a000d00037000c
:100b20006420e10002003a00838f6c00d0003300a3
:100b30000801be000200be00c9003700889fbe0049
:100b40008a9fbe008c1f7800b4000700bb003300f2
:100b500003866c006450e1002e0032006420e10046
:100b6000330032006150e1002f0032006120e100cb
:100b70003100320085855500eb07b00009002000e8
:100b800008042000050037000804440089844c0054
:100b90000a0031000603430087834b000001530025
:100ba00081815b00f8ff33000203be000800a00053
:100bb0000804440089844c00f6ff3900c639dd0082
:100bc0008301730001003200130020008904d1006a
:100bd0000884d3000998a300050032000800a7008c
:100be0000300a0008904d1000884d3008b05e8002d
:100bf0008904d1000884d3000001eb000281d200f7
:100c00004b00070001f0a1000cf0a70001f0a000cc
:100c1000930037006420e100950032000801be0017
:100c20000200be00f7ff37006120e10090003200b3
:100c30006000b800f3ff37000000200001f8270033
:100c4000f0ff3700839f68000100e00002003d00d4
:100c500060001000e08018000300e00002003d008a
:100c600060011100e0811900ed0007004f00e00075
:100c700002003b0060001000e08018000000060049
:100c800014002000f8013700f4ff2f00f6013700b0
:100c90000001be004c0007000470a70003f0a10093
:100ca0006509b100160032000d0035006828e1002a
:100cb00006003500f0ff2f00f1ff27000300e000e1
:100cc00013003b0001002800000005000000400068
:100cd000818048008502e900fcff3a0008003700e7
:100ce000f88f420002003c008000eb00000005008d
:100cf0008100d1000080d3008502e800fcff3a00ab
:100d00000300e00002003b0060001000e0801800db
:100d1000000006004f89de0082017800ed013700f7
:100d20006011b800fb01370004002000ce0137003d
:100d300081002000618055000b003d000b00200069
:100d400061fe2f000100e1001d003400828171006e
:100d5000610164008904d1000884d3000000e80028
:100d6000faff3a0071002000610064000300700087
:100d7000020060000900320061044400e0844c007d
:100d80000988a500050032008b05e8006808e1002d
:100d900002003a008904d1000884d300f20f200039
:100da0000258e10005003d00c75ddd00f907b20013
:100db0008980750008007800000006000bf8270005
:100dc0008b00780000000500c70ade00f107b200c2
:100dd000f50fb20008003200e1cf420002003200fd
:100de0000170a00024000500810f70000100320096
:100df0000408050044000500810f700002003a005d
:100e0000140005008502e9000000400081c0480090
:100e1000fcff3b000170a000240005000004be00a0
:100e2000e9ff07000003be000405be000200be008b
:100e3000e5ff0700844f7500000006000200be00b9
:100e40006450e100050036006420e1000200360035
:100e50000968a30001003a000800be000160a0007c
:100e60004f0678004f05be004f04be00000006008c
:100e7000f0ff2f00f1ff2700f9ff3700889fbe0029
:100e80008a9fbe008c1f7800e4ff0700ebff330051
:100e900003866c006450e100240032006420e1000d
:100ea000270032006150e100220032006120e100a1
:100eb000210032008b854200eb07b1000134b800fd
:100ec000003ab8000804420089844a00013ab80098
:100ed0000030b8008880400009014a000400330057
:100ee0000000400081804800020149008b05e900b4
:100ef000c909dd00830170000100320013002000e9
:100f0000c814de004814dd004709de001200b200fc
:100f1000c808de000884700085ff070001f0a1000a
:100f20000cf0a70001f0a000cdff37006120e10028
:100f3000cfff32000801be000200be00f7ff3700fd
:100f40006150e100fcff3a00c9ff3700889fbe00f6
:100f50008a9fbe008c1f78000004be009aff070025
:100f60000478a30026003a006120e1002500320049
:100f700009f8a30025003a006420e10021003200b6
:100f8000f507b1000508a300020032000000400090
:100f9000818048006044b800031020000200200057
:100fa00000004000818048000805440089854c000d
:100fb0000a0541008b8549000a0550008b855800c1
:100fc000030033000a00be0002047400838474002e
:100fd0008301d1000281d300830f7100f0ff3a003a
:100fe0008904d1000884d30060014900820178009f
:100ff000c1adde00fb07b0004dff070098ff3700d2
:101000000960a0000800be0095ff37001202200012
:1010100032428800f0ff2f00f1ff270090ff3700d9
:101020006022b800060220000000d0008180d200bb
:101030000482d2008582d2000000a0000202520089
:1010400083825a00030031000202420083824a0078
:101050000000a1000603e900f3ff3a0000000600cb
:10106000889fbe008a9fbe0030044200b0844a00c0
:1010700030054b0090854b006000b1000898be0021
:101080000a90be000440e10005c8e10006d0e1007e
:1010900007d8e10002003100680040001008e800b5
:1010a0004f05be004f04be0000000600889fbe0032
:1010b0008a9fbe003004be002005be000418540004
:1010c00005985c0006185d0007985d00110020007f
:1010d0000440e10005c8e10006d0e10007d8e100c6
:1010e000010039008000eb00108810004f05be00a1
:1010f0004f04be00000006001200fa00889fbe00e8
:101100008a9fbe008c9fbe00e0b79f00f1b79f0092
:1011100082bf9f0093bf9f000605be000404be006f
:101120000000eb00d0b79f00c0b79f00b0b79f0092
:10113000a0b79f0090b79f00000678005fb19700ae
:10114000cfb09700820141003fb097000200e0005d
:1011500004003d00370007007e805700c0ff0700f5
:1011600003003700330007007e805700cfff0700e1
:10117000dfb697000d00e0000c0035006fb297005d
:10118000ffb297000fbb97009fbb97001000200095
:10119000010020006011b80000027200818272001c
:1011a00002037300838373001b0007000c06e80032
:1011b00001042000810f5600e0ff3a000d00e0001e
:1011c00004003d000802be000a03be007e805700f6
:1011d000a3ff07005fa897000000e00005003a00a9
:1011e0001fb29700afb297003fb39700cfb39700fd
:1011f000090007006fb09700ffb097000fb9970084
:101200009fb997004f06be004f05be004f04be00b9
:101210000080fa0000000600010007000000060040
:10122000a4b79f00b5b79f00c6b79f00d7b79f0070
:10123000000006004f09de0082817100b3b79f00f5
:101240004f01de008180400082807000a1b79f00c6
:101250008fb097004f09de000000400002007000d0
:1012600090b79f007fa897004f01de00818040006b
:101270008280700081b79f000d0007004f3ade00aa
:101280000000400004007000f0af9f00080007005d
:101290000402420085824a0006034b0087834b000c
:1012a000dfff07000802be000a03be0000000600c0
:1012b0002fb29700bfb297004fb39700dfb39700ec
:1012c00000000600881f780018002000881f7800a2
:1012d00089ff07008f87e9004f04780000000600af
:1012e000801feb0084ff07008f87e90000000600e5
:1012f000889fbe008a9fbe00e00f5000e08f58001c
:10130000e00f5900e08f59000c003d006044b80028
:101310006055b8000000540081805c0002015d004f
:1013200083815d00180020001500070008003d00c3
:10133000180007000004eb00050037000004eb0074
:101340000f00070002003d001200070018002000f7
:10135000dcff07000800e000060032006022b80051
:101360006033b8000000520081805a0002015b0027
:1013700083815b004f05be004f04be0000000600e5
:10138000e00f5200e08f5a00e00f5b00e08f5b003f
:10139000000006006044b8006055b8000402540024
:1013a00085825c0006035d0087835d000000060007
:1013b000889fbe008a9fbe008c1f7800e00f5000ff
:1013c000e08f5800e00f5900e08f59000d003d00fc
:1013d0006044b8006055b8000000540081805c0093
:1013e00002015d0083815d001c0020000820e100f7
:1013f00009a8e1000ab0e1000bb8e1000d003d00d2
:10140000080037000006eb00e00f5200e08f5a00a2
:10141000e00f5b00e08f5b0006003d006044b80019
:101420006055b8000402540085825c0006035d002c
:1014300087835d00aaff07000c00e0000600320071
:101440006022b8006033b8000000520081805a006a
:1014500002015b0083815b004f0678004f05be00f0
:101460004f04be0000000600889fbe008a9fbe0099
:10147000841f780069fe07004f00780011003300d8
:10148000f0ff2f00838f6c0006003b000405650011
:101490000a00a7000800370009f0a600100020008d
:1014a00008003700820f5400838f5c00030039006e
:1014b0001000200001003e000000200009f0a700fd
:1014c0000000ea004f05be004f04be000000e0002f
:1014d00000000600881f7800030478000300e00085
:1014e00007003d0060001000e08018006001190056
:1014f000e081190002003b0001f02d0003003700dd
:101500000400070008f0a70001f0a0004f047800d5
:1015100000000600889fbe008a9fbe000082700007
:101520000402710004827100260032000004be0033
:101530000200be006011b8006b0920009502200077
:101540000182cf000a0039000541b1000082cf00be
:10155000070039000541b1000982cf0004003900bd
:101560000541b1000882cf00010039000541b100fa
:1015700005425200120032000a003b0082817100d5
:10158000610164008100d1000080d3008984d30010
:101590000884d3008b05e8000442e800f7ff3a0016
:1015a000070037000804440089844c00000048000c
:1015b000818048008b05e9000442e900f9ff3a0008
:1015c000dbfd07004f05be004f04be000000060013
:1015d0006900e100040035006d00e1000300340003
:1015e0000002b100010032000000050010000500fb
:1015f000800078001104b100030035009101b100b2
:1016000001003c000050a0000000060080007800af
:101610001106b100030035009101b10001003c004a
:101620000050a1000000060010002000b1000700db
:1016300010002000000007000004780006003700ba
:101640000180400082968000620078008100e800fe
:10165000919688000000010091968000a09680007d
:10166000808f5000f6ff39006019210080968800b5
:1016700020022000a09688000800780086fc070061
:101680000000e0002f003200c0017800e38f51001d
:101690002c0036000308a3002a003a00c1968000ff
:1016a0000100e00002003200810f50000400310010
:1016b00011009800c096880016003700820078005c
:1016c000110190000200e00002003200800f510082
:1016d000faff39001102780084824000850f500023
:1016e00018003900808f520003003a00830842003e
:1016f00001007800070037000200e000030032001c
:1017000083014000830f51000e0039001200980041
:1017100090009800900090000100e0000900320065
:1017200010014000828f500006003a00622d210017
:101730000009eb00100178001108410091009000b1
:101740001100980000000600889fbe000004780089
:10175000b19680000100e000020032000100780034
:101760000d003700c1968000802d21000400370055
:10177000910f5400250036000180e8009100900090
:101780000100e000faff3a0010003700920f540009
:101790001e0036000280e800100178000200e00020
:1017a000faff3a0011017800c1968000802d2100d7
:1017b00004003700910f5400140036000180e80047
:1017c00091009000828f5000faff3a00f996800055
:1017d000888f5400010031008804780009007800e7
:1017e000d00007000000e00004003a00888f540099
:1017f000050032008904d100f5ff37000918780090
:101800009fff0700d2ff37000000eb004f04be002f
:1018100000000600881f7800630440000800a10053
:101820008000eb00800f540021003600e30f5400cd
:1018300001003e004800200008007800c2ff0700b9
:101840008000eb000000e0001900320090007800fa
:101850009101780064815100880f5100030031002c
:10186000110190000208780007003700088140004d
:10187000020878009101900013019800100178008f
:101880001109140088087800100178000000eb00ae
:101890000200e00004003200920190000300e0002a
:1018a000010032000280e800b09688008180e800e4
:1018b000010078004f0478000000060080017800e5
:1018c00002003700b15978000201e9000200e0008f
:1018d000fcff3a000000060080017800020037009b
:1018e000815978000201e9000200e000fcff3a00a3
:1018f000000006000800fa00889fbe0080047800ff
:1019000011002000090078003e0007000004780064
:10191000e10f440035003200e10f54003500320081
:101920000800e000060032008000eb0009007800ab
:101930003400070009007800080001002d0037007e
:101940006000b8006011b800a0bf9f00b1bf9f0049
:10195000c2bf9f00d3bf9f006148b9006100500023
:10196000e0805800e50f5000e08f58001a003e005c
:1019700000600100050037000d0037000900370046
:10198000050037000d0037000f0037001024240039
:10199000214525000e003700600425005104220077
:1019a0000b00370090c42400c10422000800370057
:1019b00090e4240041052200050037003055240042
:1019c00071642500020037004055240021d5240011
:1019d000a0bf9f00b1bf9f00c10b21006c805700ca
:1019e0005f0707001000200013ff070008007800c1
:1019f000010037000000eb004f04be000080fa0039
:101a0000000006000001e9000080eb00e50f510036
:101a100006003e00808f50000400320002014100a9
:101a2000832b2100630079008131790000000600da
:101a3000020037000304e0000600320000017800d5
:101a400002007800b041780081cf5100f9ff3a00e0
:101a5000010037000001eb000200780000000600e2
:101a6000020037000204e0000b0032008101780020
:101a70000002780030417800b14f5100f9ff320088
:101a80001000200014427800934f520003003100f0
:101a90000080eb00000006000000eb0000000600e4
:101aa00000017800b1417800035978000304e00098
:101ab000fcff3a0000000600800078000101780079
:101ac0003104e000fdff3a00000051000000060074
:101ad000889fbe0081047800194478000804e00063
:101ae0000e00320006003700d24178000304e00007
:101af0000a003200d1cf1100fbff32000000e800e5
:101b00008800fb00caff07000000e000030032006d
:101b10000901780080007800f3ff37004f04be0011
:101b200000000600800078000000eb000100e000eb
:101b3000050034000100780071fb0700e10f400050
:101b400001003a000000eb0000000600ee874700ad
:101b5000889fbe008a9fbe008c9fbe008e1f7800ab
:101b6000f0b79f0001067800820578000004780035
:101b7000080578000a047800b84678000d00fb00dc
:101b800093fe07000000e000f9ff3a00d0c2b30066
:101b900080cf56000300320000c0e90080cf56001d
:101ba00002003a000a05e80001003700804678008c
:101bb0000b00e00005003500e18f55000300320006
:101bc00040022000808f5500060034006044b800b9
:101bd0000c00e000720032007fb09700000e780029
:101be000480037000b00e0000e003200f08f550077
:101bf0001a003a0000c3b3009a4f100017003a00d1
:101c00001a40900081c7b300814f5000030032009a
:101c100081c5b300814f500010003a000a85e800ea
:101c20000e003700ab00200000c3b3009a4f100035
:101c30000a003a001a40900081c7b300814f50005b
:101c4000040032008b00200081c5b300814f50009a
:101c500002003a000a85e8000b0120000a00780023
:101c6000000278000400780001c3b300b0cf100078
:101c7000fbff3200040778006044b800b4b79f004f
:101c80000d003700c114210081405000c1ef9f00ba
:101c90006159b9000800be000e0d07004fea970019
:101ca0000401fb00cf91de00c8b79f00d9b79f00a9
:101cb00002044000838448008e0278003e00fb004e
:101cc00085bf9f004afe07000b0178008000780066
:101cd000c0142100530707008fba97000000e000ee
:101ce000e8ff3a003fb29700850f550007003a0021
:101cf0006044b8000c00e00029003200ffb29700f9
:101d0000050e78006044b8002500370004825200b8
:101d10001017210060c07d000000fb00000252008f
:101d20001700330011003a004fe997000200fb0052
:101d3000cf80de000000540081805c00800f5400e2
:101d4000818f5c00090039006159b90085bf9f008f
:101d5000b3fc07008fba97004fb19700dfb197002f
:101d6000820f5000838f58000500320020022000af
:101d7000304288000084eb008084eb0005003700cf
:101d8000d0c2b30080cf560002003a0060041400b5
:101d9000e0841c000c00e00001003200050e780019
:101da0000800be004f0778004f06be004f05be007a
:101db0004f04be00ef00b10000000600889fbe0087
:101dc000000478000100780082047800880178001f
:101dd0000901780011002000a9060700890f5000b2
:101de000010032000004eb00080078004f04be0040
:101df000000006000000fa00e88157004fb9970084
:101e000080007800e0ed2000bf0107000080fa00ac
:101e100000000600889fbe00000478000203be0098
:101e200081047800080278008901780012002000ff
:101e30000600be008b090700890f50000100320028
:101e40000004eb00080078004f04be00000006000c
:101e50006800fa00889fbe008a9fbe008004780058
:101e6000010478008205780003057800840078007a
:101e700000f92f000f00400078090700d98f9f005c
:101e8000fb8f9f000000eb00a09f9f00e88f9f004a
:101e90009a84fb000904fb008904ea00cf4cde00b1
:101ea00050022000800f54000d003200e18f5400da
:101eb0000b003a00090178008a0078007f889700bb
:101ec000df89970003000100f08f9f000000e00011
:101ed000950032002f9897000000e800a09f9f0017
:101ee0000905450050022000800f54000400320014
:101ef0000800e000e6ff3a002f9897008b003700bb
:101f00000000eb00809f9f00f0979f00e0979f00ec
:101f1000d0979f00c0979f00b0979f0007003700a1
:101f2000e125210001005000000040002125210092
:101f300061007800cf98970001007000c09f9f005b
:101f40000a04780008057800ba4478008900fb008c
:101f5000e0252100b6fe07000000e000f0ff3a0097
:101f6000a1c2b30081cf54000e003a008f889700c1
:101f70000180e900808f9f0010007800b09f9f00d3
:101f80000000e00005003d000000ea00b09f9f0057
:101f90004f9897000020a000c09f9f000804e80011
:101fa00010003700b09f9f00880078000000eb0011
:101fb00005003700f3ff2700830f500002003200b6
:101fc0006a02b9000400410001047800880078002a
:101fd0003101fb000203b100e90f5100f5ff3600ab
:101fe000b09f9f00e0c2b300984f10000200320083
:101ff0000080eb0019003700a0c2b300d84f1000da
:1020000007003a008f8897000180e900808f9f00c9
:1020100010007800909f9f000804e800100037002f
:102020000000eb00909f9f008800780005003700bb
:10203000f3ff2700830f5000020032006a02b9004c
:102040000400410001047800880078003101fb00a1
:102050000203b100e90f5100f5ff3600909f9f0089
:10206000984478008900fb00a024210070fe07003e
:102070000000e000020032000804e8000100370020
:102080008044eb00a97f9f0080c6b30080cf54003e
:1020900006003a0098cf140010003a006640500045
:1020a000a07f9f000804e8000c003700c0c6b30002
:1020b00080cf540009003a0098cf140007003a007e
:1020c00067404000d84f100002003a006e405000b8
:1020d0000100370010c7b300a07f9f001801fb006c
:1020e000c3fb2f008f81410001f92f008f8040003a
:1020f00020f92f000f004000080107000000e00059
:1021000009003a00c1fb2f008f80400020f92f000a
:102110000f004000f70707000000e0000200350054
:102120000805e8005aff37000080eb004f05be00ad
:102130004f04be000080fa00000006000302780091
:102140008201780001017800a1f0200040ff3700f3
:10215000889fbe00800478000203be00010478005e
:102160006149b800898fd2008381d20008027800cb
:102170000600be00210a0700088044004f04be008c
:1021800000000600881f780002047800080178002b
:10219000cafd0700080040004f0478000000060058
:1021a0000000fa00881f7800000478006a82570057
:1021b000bfb9970008017800810a2100200c210096
:1021c000160007000000e000020035008040eb0030
:1021d000017478004f0478000080fa0000000600c7
:1021e000889fbe00000478000203be0081047800ce
:1021f0000802780089017800120020000600be0065
:1022000098080700890f5000010032000004eb001d
:10221000080078004f04be00000006006800fa00c5
:10222000889fbe008a9fbe00800478000104780069
:1022300082057800030578008400780000f92f00fb
:102240000f00400085080700d98f9f00fb8f9f007b
:102250000000eb00a09f9f00e88f9f009a84fb0086
:102260000904fb008904ea00cf4cde005002200084
:10227000800f54000d003200e18f54000b003a0033
:10228000090178008a0078007f889700df8997002d
:1022900003000100f08f9f000000e0009500320075
:1022a0002f9897000000e800a09f9f0009054500b7
:1022b00050022000800f5400040032000800e000ab
:1022c000e6ff3a002f9897008b0037000000eb00e4
:1022d000809f9f00f0979f00e0979f00d0979f00fe
:1022e000c0979f00b0979f0007003700812721000b
:1022f0000100500000004000c1262100610078006c
:10230000cf98970001007000c09f9f000a047800da
:1023100008057800ba4478008900fb008027210076
:10232000c3fd07000000e000f0ff3a00a1c2b300c7
:1023300081cf54000e003a008f8897000180e90099
:10234000808f9f0010007800b09f9f000000e00089
:1023500005003d000000ea00b09f9f004f989700e5
:102360000020a000c09f9f000804e8001000370074
:10237000b09f9f00880078000000eb000500370048
:10238000f3ff2700830f5000020032006a02b900f9
:102390000400410001047800880078003101fb004e
:1023a0000203b100e90f5100f5ff3600b09f9f0016
:1023b000e0c2b300984f1000020032000080eb0032
:1023c00019003700a0c2b300d84f100007003a0030
:1023d0008f8897000180e900808f9f0010007800af
:1023e000909f9f000804e800100037000000eb00f9
:1023f000909f9f008800780005003700f3ff2700ba
:10240000830f5000020032006a02b900040041004c
:1024100001047800880078003101fb000203b1005c
:10242000e90f5100f5ff3600909f9f009844780017
:102430008900fb00402621007dfd07000000e00030
:10244000020032000804e800010037008044eb007d
:10245000a97f9f0080c6b30080cf540006003a00d9
:1024600098cf140010003a0066405000a07f9f00f3
:102470000804e8000c003700c0c6b30080cf540049
:1024800009003a0098cf140007003a006740400066
:10249000d84f100002003a006e4050000100370093
:1024a00010c7b300a07f9f001801fb00c3fb2f00e3
:1024b0008f81410001f92f008f80400020f92f000b
:1024c0000f004000150007000000e00009003a007e
:1024d000c1fb2f008f80400020f92f000f0040002b
:1024e000040707000000e000020035000805e800ce
:1024f0005aff37000080eb004f05be004f04be00be
:102500000080fa00000006000302780082017800d3
:1025100001017800010f210040ff3700889fbe00b5
:102520008a1f780000047800824478000305780050
:1025300070c6b30080cf540021003c0000c0e90009
:1025400080cf5400d5003d007240500080cf540031
:102550003c0132000d003c006c40500080cf540024
:102560006d013c0000c0e90080cf5400cb003d006d
:1025700050c2b30080cf5400640132007c40400060
:1025800080cf540064013a00c400370010c6b30085
:1025900080cf5400c100320004003c00694050006c
:1025a00080cf54005c013a006900370030c6b300a8
:1025b00080cf5400180032000040e80009003700c6
:1025c00000c7b30080cf54001001320008003c0067
:1025d00000c0e90080cf5400d90032005c003c000c
:1025e0006540500080cf54004b013a000f00370087
:1025f00050c7b30080cf5400550032006340400004
:1026000080cf5400520032006540500080cf54000b
:1026100041013a000b0137001181e900820878007e
:102620002808900012757800410137000868900072
:10263000c2c6b300824f500007003a001101780073
:1026400064005100800878001000be004f89de0051
:10265000820178001400370012c7b300824f500087
:1026600003003a00110278006800520005003700ac
:10267000a2c6b300824f500006003a0091027800d3
:1026800068805200800878005001be004000be0003
:10269000050037001180e9008008780010007800fc
:1026a000cf80de006109b900009cbe000294be002c
:1026b000086a900085c6b300854f52000d003200b5
:1026c00025c6b300854f520004003a000000fb000d
:1026d000cf80de006109b9000800370045c7b300ac
:1026e000854f520003003200e6c24200854f52007f
:1026f00004003a00cf80de006109b900009cbe00f2
:102700000294be003802be002803be0028089000d4
:10271000d1c2b300e00f5200e08f5a00e00f5b001f
:10272000e08f5b0008003500b81090000118a3008e
:1027300002003200b1c2b300030037000108a30059
:102740005100320001c2b300017578004c0037001f
:1027500008689000c2c6b300824f500008003a00db
:102760001103780064005300800878001002be0056
:102770006033b8000400be000601be00140037003c
:1027800012c7b300824f500003003a009102780054
:102790006880520005003700a2c6b300824f500087
:1027a00006003a00110378006800530080087800a2
:1027b0005001be004000be00050037001180e90056
:1027c00080087800100078008000eb006011b800ed
:1027d000009cbe000294be00086a900085c6b3004b
:1027e000854f52000d00320025c6b300854f5200c0
:1027f00004003a000080fb008000eb006011b8008c
:102800000800370045c7b300854f5200030032006f
:10281000e6c24200854f520004003a008000eb00ff
:102820006011b800009cbe000294be0038109000f9
:102830000038a300140032003800be002801be009a
:10284000e00f5000e08f5800e00f5900e08f590072
:102850000d00320080c7b30080cf54000300320067
:1028600080c5b30080cf540007003a0028089000cc
:1028700001c3b300017578000000e8000975780015
:102880000000e800200c9800280890000005450092
:102890007a04980089407800670037000869900042
:1028a000c0c4b300804f510006003a009103780085
:1028b00068805300800878005001be004000be00d0
:1028c000050037001101780064005100800878008d
:1028d0001000be0036090700009cbe000294be0036
:1028e000b8009000280890000100e00002003d00c0
:1028f000d1c2b30008003700b81090000118a3003f
:1029000002003200b1c2b300030037000108a30087
:102910000400320001c2b300017578000000e80035
:10292000200c980028089000000545007a049800c3
:102930008900fb0008007800830007007e00370054
:1029400008699000c3c6b3001180e900834f5100ad
:10295000220032000a003c00e4c15100834f5100c4
:102960002500320083c1e800834f5100130032007c
:10297000e8c15100834f51001e003a000a003700a1
:1029800043c7b300834f51001b003200e6c1410032
:10299000834f510018003200e9c15100834f5100ac
:1029a00014003a0005003700800878001000780015
:1029b00028649000084878005f003700800878009d
:1029c0001000780018129000cfa2de00612bb90031
:1029d0000498be000690be005700370080087800bb
:1029e0001000780018119000cf91de000288be0020
:1029f000510037001180e90080087800100078004d
:102a000018149000080878004b0037001180e90086
:102a10008008780010007800cf80de006109b900de
:102a2000009cbe000294be002808900000054500ee
:102a30007a04980081c7b300080078007e0407007c
:102a40003d0037000869900050c6b300804f510028
:102a50001a003a00110278006400520080087800e1
:102a60001000be00000c9800110c98008811900016
:102a70000300e00007003d008081eb000001eb0057
:102a8000070807000001be0088089000810051007f
:102a9000080037000001eb0001080700008170000a
:102aa0000300320008099000820050000100370046
:102ab00088109000410c98001f0037001180e90039
:102ac00080087800100578007a0498008814900037
:102ad0000900e00004003d000a007800f6fb070052
:102ae0008004780007003700090178008000eb00bf
:102af0000a007800cb0307000000e000010032006c
:102b00008a045000490c98000b00370028089000f8
:102b10000975780006003700280890000005450078
:102b20000904e00001003a0059c2b300094d7800e1
:102b30000000e800200c98000000eb004f05780032
:102b40004f04be00000006002f04b000889fbe00a6
:102b50008a9fbe008c9fbe008e1f78000007780001
:102b600081f79f003e04be002e05be000e109000af
:102b70000000e00002003d00600020000017980007
:102b80008e00780020fb2f000f004000000407009b
:102b9000e20f50000a003a0030002000400f980079
:102ba000b1c9b3000ff0970081404000800f2100b1
:102bb000e1cf50000d003e00400f21000b00370018
:102bc0000000e0000f00340030002000400f9800ab
:102bd000b1c9b3000ff197008140410000102100fe
:102be000e1cf500001003e00c00f2100fe00900028
:102bf000b0487800b06878001040780090409800a5
:102c0000f30037000000e00005003a0022fb2f002f
:102c10000f014100001978008001eb00e700370048
:102c20006022b8006033b8000800be000a01be0090
:102c3000b60707000000e00001003d000bf0a20015
:102c4000705927009f9897000088b900026a2800f1
:102c500013002000fbf70700640650009c9f9f00b4
:102c600013003b0063061600c0ff2f00000666003d
:102c70008c01ea00939f9f004d1021000800be00c8
:102c80000a01be00070037000c08a3000300320051
:102c90003d02be002d03be00930807000c86d10044
:102ca000e88646000c00e000f7ff3c001800370003
:102cb0000c00e00018003200c0ff2f000006660084
:102cc0009c9f9f004d1021006000b8000200200072
:102cd00003ff2300070037000c08a30003003200a5
:102ce0003d02be002d03be007f0807000c86d10008
:102cf000e88646000c00e000f7ff3c000002be0042
:102d00000203be000800be000a01be0089070700da
:102d10000004be000205be008e10900060c6b30025
:102d20000ff29700804f5200040032006000200034
:102d300062c4b300824f520002003a009f9a97008b
:102d40006a80420081004000f1b79f0001037800d3
:102d5000f30f53000200340037012000f7b79f0043
:102d600000c3b300c0779f0056fb2f000f03430042
:102d70000e007800a0b79f00060778003d003700de
:102d80000800be000a01be00280807000006be00b9
:102d90007fb1970068015100f2b79f004240a9003f
:102da0000c0034004d0807000002be000203be0004
:102db0000800be000a01be00c10807006022b8007a
:102dc00046782d0077192400470807000004be004c
:102dd0000205be00e80047008e0020000802be0089
:102de0000a03be00b4b79f00c5b79f00d6b79f00c7
:102df000e7b79f000c01be00010478000c0037000b
:102e0000a400200005002000c0fd2f000f0040009e
:102e1000ef0207006fa89700ffa897000fb1970077
:102e20009fb1970005c3b300056441000001be00d7
:102e3000e00f5100e08f5900030034000e07e90055
:102e4000e10f4700eeff3a00880078003fb497009a
:102e5000cfb497005fb59700efb597000200370039
:102e600000c3b300806078000e07e900fcff3b0060
:102e7000688740007fb397000600e0000700340039
:102e80006022b8006033b8000800be000a01be002e
:102e9000230707000000e000b9ff3c000e037800a4
:102ea0002fb7970051fb2f008f8040000103530084
:102eb0009f9b970067804300909f9f000200370010
:102ec0000603e9000000e9000101780082007800b3
:102ed00003c3b300b1cf1100f9ff3200909f9f00f0
:102ee0008e11900061c6b3000ff29700814f52001f
:102ef0000300320061c4b300814f520002003a0067
:102f00000000e8000a0037001000200051c6b3009e
:102f10008ff2970081cf5200050032000540780003
:102f200050c4b2000080fb000000e9004f00de004a
:102f300083014000868f5100010034008601780033
:102f40000300e0001d00350000c3b300868f510070
:102f500006003d0062c279006940400041c3b300f1
:102f6000814f520001003c00694050008300e9009d
:102f70008100410001003700840178000302e9006c
:102f800001037800a142780080cf5200faff32009e
:102f900091c3b300814f500001003a00054be80097
:102fa0000400e00005003d000201e9008301e800a3
:102fb0001f9b97000603e800969f9f008ff39700e2
:102fc0008700fb001f9a97000e007800060007009c
:102fd0004f0778004f06be004f05be004f04be00ed
:102fe0002f04b10000000600f0874700889fbe0054
:102ff0008a9fbe008c9fbe008e1f78000004780060
:10300000814478000205be00040678000b00e00051
:1030100002003c001b0020000a2e210060c6b30005
:1030200080cf54000e00320060c4b30080cf540043
:103030000b00320070c6b30080cf54000300320092
:1030400070c4b30080cf540081003a00e40f460002
:103050007f00350008109000800f56007c003d0076
:103060000c06e80060c6b30080cf540010003200a8
:1030700060c4b30080cf54000d00320038109000bf
:103080000038a30004003a0008109000808f55001b
:1030900001003d000b149800081090000c00500037
:1030a0000014980002003b000000eb0000149800a0
:1030b00048089000f80090000c00e00026003c005a
:1030c00002c3b300827078000000e800400c980052
:1030d000881090000100e00003003c00b810900050
:1030e0000138a30005003200f8009000e2c2b300ee
:1030f000827078000000e800400c980008109000f2
:103100008c00ea00810f500001003d000006ea003b
:103110008c00ea00510c9800000646000c14980040
:103120008b0f5600010034000b0678006c0c9800e1
:10313000f800900048089000008040000c017800e2
:103140008a007800ddf90700081090000c06500096
:103150007c0c9800900037008c8f550018003d00c3
:10316000008040000b0178008a007800d3f9070046
:103170004808900000804500400c98008b055600e0
:103180005b0c9800881090000100e00003003c00f8
:10319000b81090000138a30006003200f80090003b
:1031a000e2c2b30082707800680890000000e80076
:1031b000600c980008109000700c980076003700a2
:1031c000008040000c0178008a007800bbf90700fd
:1031d0004808900000004600400c98008c8555007f
:1031e000881090000100e00003003c00b81090003f
:1031f0000138a30005003200f8009000e2c2b300dd
:10320000827078000000e800400c980008109000e0
:10321000808f55000100340080057800f800900090
:1032200048089000008040008c0045000b017800a9
:10323000a2f90700480890000b004000400c9800dd
:10324000081090008b0550005b0c9800520037006e
:1032500048089000f80090009a7078000000e8009c
:10326000400c9800881090000100e00003003c0032
:10327000b81090000138a30005003200f80090005b
:10328000e2c2b300827078000000e800400c9800b1
:10329000081090000000e000100034008b05e900e9
:1032a000808f55000100340080057800f800900000
:1032b00048089000008040008a00e8000b01780078
:1032c0007ef90700480890000b004000400c980071
:1032d000081090008b0550005b0c9800f8009000df
:1032e0004808900000804000095878000007e80076
:1032f0000c00e00004003500b1c2b30001487800c2
:103300008e04780004003700d1c2b3000148780071
:103310008e0478000c06ea007d8557008006eb00dd
:1033200009003700a20020008c007800728057004e
:10333000000107007fb097008fb89700016d7800fb
:10334000000678008d06e8000c00e000f5ff3c0068
:103350000d00e00009003a008e04780000c3b300bd
:10336000805c7800050037008d06e900fc8057007e
:1033700061c07e0002c3b300825c40000d00e0002b
:10338000f9ff3c00f80090004808900000804000e1
:1033900080845400690c980038109000740060001c
:1033a000f00f50000e003a00c80890002808900066
:1033b00000804000d808900001004000e80890001c
:1033c00001004000f808900001004000a8109000a3
:1033d000810f500002003d0000805000300c98002a
:1033e0004f0778004f06be004f05be004f04be00d9
:1033f0000f01b10000000600889fbe0000047800a5
:103400000203be0081047800080278008901780078
:10341000120020000600be0012040700890f5000b1
:10342000010032000004eb00080078004f04be00e9
:10343000000006006800fa00889fbe008a9fbe0058
:103440008004780001047800820578000305780084
:103450008400780000f92f000f004000ff030700f0
:10346000d98f9f00fb8f9f000000eb00a09f9f0063
:10347000e88f9f009a84fb000904fb008904ea009e
:10348000cf4cde0050022000800f54000d003200af
:10349000e18f54000b003a00090178008a0078009f
:1034a0007f889700df89970003000100f08f9f005d
:1034b0000000e000950032002f9897000000e8001f
:1034c000a09f9f000905450050022000800f540076
:1034d000040032000800e000e6ff3a002f98970051
:1034e0008b0037000000eb00809f9f00f0979f004b
:1034f000e0979f00d0979f00c0979f00b0979f00d4
:103500000700370021292100010050000000400081
:103510006128210061007800cf98970001007000b9
:10352000c09f9f000a04780008057800ba4478001c
:103530008900fb00202921003df907000000e00080
:10354000f0ff3a00a1c2b30081cf54000e003a0050
:103550008f8897000180e900808f9f00100078001d
:10356000b09f9f000000e00005003d000000ea0061
:10357000b09f9f004f9897000020a000c09f9f0021
:103580000804e80010003700b09f9f008800780012
:103590000000eb0005003700f3ff2700830f500009
:1035a000020032006a02b900040041000104780000
:1035b000880078003101fb000203b100e90f5100df
:1035c000f5ff3600b09f9f00e0c2b300984f100097
:1035d000020032000080eb0019003700a0c2b300e7
:1035e000d84f100007003a008f8897000180e9004b
:1035f000808f9f0010007800909f9f000804e800d3
:10360000100037000000eb00909f9f0088007800ba
:1036100005003700f3ff2700830f5000020032003f
:103620006a02b900040041000104780088007800b3
:103630003101fb000203b100e90f5100f5ff360034
:10364000909f9f00984478008900fb00e0272100ac
:10365000f7f807000000e000020032000804e8006c
:10366000010037008044eb00a97f9f0080c6b300b3
:1036700080cf540006003a0098cf140010003a00a2
:1036800066405000a07f9f000804e8000c0037004f
:10369000c0c6b30080cf540009003a0098cf140090
:1036a00007003a0067404000d84f100002003a007f
:1036b0006e4050000100370010c7b300a07f9f008c
:1036c0001801fb00c3fb2f008f81410001f92f007f
:1036d0008f80400020f92f000f0040008ffb070073
:1036e0000000e00009003a00c1fb2f008f8040007d
:1036f00020f92f000f0040007e0207000000e000cc
:10370000020035000805e8005aff37000080eb0092
:103710004f05be004f04be000080fa000000060006
:10372000030278008201780001017800c19f210026
:1037300040ff370080027800010378001100090083
:103740000203d80080017800830a78000299b9004a
:103750000201530092029800050078000000060064
:10376000889fbe008a9fbe00800478000104780014
:103770002c003700c800900068009000808f500037
:103780000400390008007800ba0007000000e000db
:1037900037003500004020001800600009003200aa
:1037a000a100200009007800a8000700800578002b
:1037b0000b00e00003003200618514000a8545001b
:1037c0000400370009007800bbf807000005780006
:1037d0008005eb0048009000e800900080805000d9
:1037e0008a8f500002003100010578008005eb004f
:1037f0000a0178008900780030f80700480090003e
:103800000a004000400498000b00e0000400320071
:1038100008007800e20307000000e00014003a000e
:103820008a8444001904e000d2ff3a00008020009e
:10383000180060000600320008007800d803070076
:10384000800078000080eb000100e00009003a00f1
:1038500001c02000988060000000eb0005003200ed
:1038600048009000600498000000eb000100370061
:103870000080eb004f05be004f04be0000000600b4
:10388000889fbe008a9fbe008c9fbe008e1f78005e
:1038900000067800010478000200780083047800b4
:1038a0000881b900020778000200e00042003200ff
:1038b0000800e0004100320082057800c900900055
:1038c00069009000808f50000400390009007800e2
:1038d000680007000000e0002900350000402000db
:1038e000190060000a0032000b017800a1002000de
:1038f0000c0078004b000700800678000d00e00007
:1039000006003200610516000a85460004003700f3
:103910000b0578008006eb00010037000b057800ee
:1039200049009000e9009000808050008a8f50008c
:1039300002003100010578008006eb000a017800e2
:103940008c007800ddf707008a855500490090005b
:103950000a004000c00498000d00e000040032009e
:10396000090078008e0307000000e00004003a0020
:103970000b00e000020032000a064600cfff3700cd
:103980000080200019006000020032000900780069
:103990008303070000c0200019006000020032000d
:1039a00049009000e00498008b05570011000900c1
:1039b0008885d800010037000000eb004f07780031
:1039c0004f06be004f05be004f04be0000000600bb
:1039d000881f78008a9fbe008c9fbe00000478007c
:1039e0000205be000406be000401be000a00be00bf
:1039f00094f40700008cbe000c01be00b505070062
:103a00000005550081855d002a0498003b0498005c
:103a1000080078004f06be004f05be004f04780036
:103a20000000060003003700b0cf10000500320090
:103a30000201e900800178000200e000faff3a008c
:103a40000000050003007800000006000001eb0004
:103a500000027800b041780081cf510001003a00a7
:103a6000040178000304e000f9ff3a000200780046
:103a700000000600889fbe008a1f780000047800be
:103a8000c8009000680190000000eb00828f500099
:103a90003c00390018007800220029000201600073
:103aa000e20f510007003200012020000000e0007a
:103ab0000100350001202400008c70000080eb0024
:103ac000300037000200260002006000820f500024
:103ad00009003a0038009000808f5000060039003d
:103ae000080078002e030700800078000080eb00bb
:103af0000100e00023003a001805780000c0200013
:103b00000000650018003a00a80490006002200040
:103b100008004000808f540013003a00002020006d
:103b20003cf70700200498000000e00005003a0080
:103b300029049800490498008904e8003904980091
:103b4000080037000a60a0000a0c780040049800c2
:103b5000012020008080400031049800400c980033
:103b6000500c9800ad020700280090005004980007
:103b7000380090006004980000002600180c7000c7
:103b80000000eb004f0578004f04be000000060067
:103b9000889fbe0000047800e68440001900d00031
:103ba0004500de00f27f2000820f500010003a0036
:103bb000000ceb00990478006f8164002000200065
:103bc0001b003a00210190000200e00018003a00ba
:103bd000110190000200e00015003a0010002000e2
:103be0001100e00012003200200020001000370019
:103bf0000000e00004003a00010078002f030700f5
:103c00000000e00008003c00f200280019016100fb
:103c100001fe2300810c710021c02f00010c400027
:103c20000080eb0002003700000ceb000000eb000e
:103c30004f04be0000000600fc874700889fbe00be
:103c40008a9fbe008c9fbe008e1f78000006780001
:103c500080c5b30080cf50000a003200774040009a
:103c600080cf50000a0032006940400080cf5000f1
:103c70000b0032009021210080bf9f00ae00200089
:103c80000a0037008220210082bf9f000600370013
:103c90009321210083bf9f008e0020000300370086
:103ca0009421210084bf9f000e0120003c02be0031
:103cb0002c03be000605be000404be0040c6b300cf
:103cc00080cf5000030032006540400080cf50009c
:103cd0000b003a00e00f5200e08f5a00e00f5b004b
:103ce000e08f5b0006003d006000b8006011b80086
:103cf0000404500085845800060559008785590042
:103d0000e80f57000400320040002000f00f570079
:103d100038003a000100370030002000e00f540066
:103d2000e08f5c00e00f5d00e08f5d0004003a0072
:103d30008c1090008d0120000100e0000600320090
:103d40008e00e900888060008fba9700e5c0780097
:103d5000f1ef9f007d012000800078008100e900e4
:103d6000050033008b05d1000a85d3008984d30078
:103d70000884d300f9ff3700089ebe000a96be00f3
:103d8000120037008d06e9008e00e9008480600093
:103d90000fb99700e2c1780082fd2f000f014100aa
:103da00003f17e00800078008100e9000500330007
:103db0008783d1000683d3008582d3000482d30099
:103dc000f9ff3700049ebe000696be003c02be000e
:103dd0002c03be00e00f5200e08f5a00e00f5b00a2
:103de000e08f5b008b0034000d00e000e5ff3c003d
:103df000880037000c68900081c6b300814f5000e6
:103e00000b00320006003c000004e0000800320015
:103e1000e6c05000814f50004e003a0004003700c9
:103e2000c1c6b300814f50004a003a00210037005c
:103e30000800e00004003a000c1090008d01200002
:103e40000000e00006003200110009000e84d800d6
:103e50000fb99700e2c07800f1ef9f007d012000cc
:103e6000110009000e84d8000a0037001100090073
:103e70000e04d8008d06e9000e81b900020454003a
:103e80008fb8970061417c0081fd2f008f8040003a
:103e900082f07e00000478000800e000020032009a
:103ea0000d00e000f1ff3c00cfc4de00614db90021
:103eb00025003700e00f5400e08f5c0004003a005a
:103ec0000c1090008d0120000000e000070032007f
:103ed0006171b9000800be007b0407008fb997002c
:103ee000e3417800f3ef9f007d0120006171b9008c
:103ef0000800be004af407000b0037006171b900ea
:103f00000800be004ff307008d06e90000f1b9007c
:103f1000020454000fba9700e4427c0084fd2f0095
:103f20000f02420005f27e000004be00e00f5000c8
:103f3000e08f5800020032000d00e000efff3c006f
:103f40004fcdde008a057800089ebe000a96be00ae
:103f500030003700e00f5400e08f5c00e00f5d00a0
:103f6000e08f5d0004003a000c1090008d012000ed
:103f70000000e000090032006172b900612bb90055
:103f80000800be000a01be00d5f407000fba970072
:103f900064427800f4ef9f007d0120006172b90057
:103fa000612bb9000800be000a01be00c5f407007d
:103fb0000d0037006172b900612bb9000800be0026
:103fc0000a01be00caf407008d06e90000f2b9003c
:103fd000040454008fba970065427c0085fd2f00d1
:103fe0008f82420084f27e00009ebe000296be00d8
:103ff0003c04be002c05be00e00f5400e08f5c00c6
:10400000e00f5d00e08f5d00020034000d00e00075
:10401000e8ff3c00e80f570010003a003c10900009
:104020000038a3000d003200f78f560006003e0056
:1040300085fd2f008f824200e5c07e0000c3b300e3
:1040400080cf5000050032008d06e90002c3b300a6
:1040500081fd2f008f80400082f07e007881160065
:10406000420e98007c00900083fd2f008f8141005c
:104070008d80410011f607004c0890008c109000d4
:10408000810f500006003d0000805000300e980067
:104090003c1090000040a100301698000f0037003f
:1040a0000100e0000d003d00bc109000f4806000b5
:1040b000f08f500009003a002c119000ac089000dd
:1040c000810051003c099000828050000080500027
:1040d0004240a90001003400300e98004f077800dc
:1040e0004f06be004f05be004f04be00cf01b10019
:1040f000000006000400fa00889fbe008a9fbe00f0
:104100008c1f78000004780001067800a814900045
:10411000280890008084540038089000808454005f
:10412000480890008084540058089000808454000f
:1041300068089000808454007808900080845400bf
:104140000002220090bf9f0000032300a0bf9f0039
:10415000381090000028a30015003a000900e00084
:1041600013003400090578008a057800e20f550035
:10417000010036002b002000c80190000b017800e0
:10418000ee80570068009000030001006004980072
:104190000000e000aa003200181090000b00400060
:1041a000101498000b0555004240a900eeff3c009a
:1041b000280990000200e0000c003400c8019000c3
:1041c0008c007800680090000300010060049800f3
:1041d0008080eb000000e0009a0032009810900010
:1041e000280890000080400010149800380d9000be
:1041f0000a00e000110034008a057800e20f550043
:10420000010036002b002000c80190000b0178004f
:10421000ec805700680090000300010060049800e3
:104220000000e00086003200181090000b004000f3
:10423000101498000b055500edff37000869900039
:10424000c808900050c6b300804f510008003a00e3
:104250000100e000150034005802900008099000a9
:1042600098099000680090000400010007003700e2
:104270000100e0000d003400c80190000101780049
:10428000f8009000680090000300010060049800ae
:104290008080eb000000e0006a003200981090007f
:1042a000480890000080400010149800580d9000bd
:1042b0000a00e000110034008a057800e20f550082
:1042c000010036002b002000c80190000b0178008f
:1042d000ec80570068009000030001006004980023
:1042e0000000e00056003200181090000b00400063
:1042f000101498000b055500edff37000869900079
:104300006808900051c6b300814f51000d003a007b
:104310000000e0001c00340078019000c808900004
:10432000010141006111b800828fd2008381d20067
:10433000580290008000780068009000040001009e
:10434000090037000000e0000f0034007801900001
:10435000c808900081004100c80190000001780069
:104360006800900003000100600498008080eb006a
:104370000000e000330032009810900068089000c0
:104380000080400010149800780d90000a00e000b2
:10439000110034008a057800e20f55000100360054
:1043a0002b002000c80190000b017800ec80570022
:1043b0006800900003000100600498000000e00025
:1043c0001f003200181090000b00400010149800dd
:1043d0000b055500edff3700381090008000eb0012
:1043e0000028a300170032000900e0001500340087
:1043f00009057800e28f5400010036002a002000f1
:10440000c80190000a017800ee8057006800900013
:1044100003000100600498000000e0000800320082
:10442000181090000a004000101498008a8454006c
:104430004240a900eeff3c008000eb000100370085
:104440008080eb00010078004f0678004f05be0029
:104450004f04be000080fa0000000600010878004a
:1044600000000600e6874700889fbe008a9fbe00c6
:104470008c9fbe008e1f780082bf9f0004047800ce
:10448000029ab900f4b79f000400e000590032001e
:104490000fb997000200e000570032000006be008e
:1044a00004077800c800900068009000808f5000da
:1044b00004003900080078006efd07000000e000ed
:1044c0003b00350000402000180060000a00320068
:1044d0008e017800a20020000c00be0070010700d1
:1044e0000005be0000807500070032008c045500f6
:1044f0008904e800050037008e0478000a002000d7
:104500000b002000010037008e0478004801900065
:104510006800900002005000890f50000300310035
:10452000800478000a0020000b0020006111b80010
:10453000828fd2008381d200090278000c00be0075
:104540002e010700090757004800900009004000ad
:10455000400498000a8575000400320008007800c5
:104560008f0007000000e00011003a000e00e0009c
:104570000f0032006148b800808fd2008180d200e5
:104580000000780000f0a1008c01d0000001d000f4
:10459000028641004220a80081864e004200a90008
:1045a0004220ae004200a8000c86d300bdff3700b9
:1045b000008020001800600002003200080078002f
:1045c0007700070000c020001800600002003200e1
:1045d000c8019000630498007fb097000e07500058
:1045e0000fb99700110009000287d80080017800f8
:1045f000010037008001eb00030078004f077800ce
:104600004f06be004f05be004f04be006f00b10054
:1046100000000600003b22009c003700881f780045
:10462000282e21001804e00003003a00f9ff0700db
:1046300020c0b300004c78004f0478000000060052
:10464000889fbe000004780008007800540007002e
:10465000800478000004200018006000020032008e
:104660002800900006f407000000eb0020049800ea
:10467000384090000004e000050035000000fb0019
:104680008df007000000e000010032008084eb00a4
:10469000181090000000e000080032008ff00700c2
:1046a0000000e000010032008084eb001810900050
:1046b000f3f307000000eb0010149800000820003e
:1046c00018006000150032000001eb006000b80027
:1046d000430e21000202d00063027a00880f5200cc
:1046e00005003a0000004000818048000080410041
:1046f0000008eb000600370061004000e080480041
:104700000201e800e80f5000e08f5800f0ff3a0087
:1047100008007800daf307000e003700000c78007c
:1047200000c0eb0030449800600220000800400008
:10473000200498004004980050049800400c980011
:1047400060049800500c98007004980076004400b3
:10475000000c9800090078004f04be00000006001d
:10476000881f78000004eb006140b800e2ff2f00d2
:10477000f3ff2f0057020700220f2100620078008c
:104780000000e00001003200adff07000804e8006f
:10479000e80f5400f4ff3a004f04780000000600d0
:1047a000889fbe00000478000800e0000f003a0077
:1047b0008004eb00090478008800d000400e21003e
:1047c000610078000000e00004003200f4ff070000
:1047d0000000e00001003d008084eb000804e800d8
:1047e000e80f5400f4ff3a002500370000002200d3
:1047f000180060008004eb0021003200a804900043
:104800000f00370009015100384090000000fb0004
:10481000890078005bf007000000e00007003c0022
:10482000280090004004980060049800500c980004
:104830001890a0008084eb001100370080844400b1
:1048400048019000828f5400eeff3900280090004c
:10485000400498009800780002c0200002816000a7
:1048600001003a003800900001e8a3000200320085
:104870006004980001003700500c98008004eb00a1
:10488000090078004f04be0000000600c1b12000fe
:104890000100e00008003200919680000100e00075
:1048a000050032008100e900919688008100d00067
:1048b0008296800000b1780000000600e60040000b
:1048c0001101780005002800850261006f01610078
:1048d0008208780002003200120020001100370028
:1048e000a0019000120020000300e0000d003a003b
:1048f000900190000300e0000a003a001000e00080
:1049000008003a003600370064034000960878003b
:1049100080017800530b7800900978000408780033
:1049200070015100110278000400e000f6ff32002f
:104930001300370064024000140378004f33de0098
:10494000838141008308730080017800d3037800dd
:10495000cf3bde001403780006034300068a730091
:104960001302780004024200100378004f33de0087
:104970008609720090017800038841000201e90075
:1049800091017800ef8f5100eaff360010003700e8
:1049900080017800530378004f33dd001002d1000e
:1049a000040873006402400094037800cf3bdd00ec
:1049b0001303d10086897300110378004f33dd00a3
:1049c0009401d100030a73009108d1000201e800ac
:1049d00091017800ff8f5100edff3e00ef886100ec
:1049e00091887200020078000000060000c0da0022
:1049f0000000060000c0da00000006003400f800e5
:104a00003200f8000203be008202700085027200cc
:104a100002f0a6008301e800a301880000f0a600d0
:104a20008100e800910188001500b2000c003200fe
:104a3000104978000402e9001500320061014100cc
:104a4000020039003420ec00020028006100400020
:104a5000f7ff39003220ec0000002800f4ff370097
:104a6000100978000482e900090032006201410067
:104a7000020039003420ec000200280062004000ef
:104a8000f7ff39003220ec0000002800f4ff370067
:104a90003200f9003400f9000601be0000000600f3
:104aa0000300e000070032009501800091018800ba
:104ab00010427800950188000402fb00820f52002a
:104ac000110032008301e900950180009101880006
:104ad00010427800950188000404e00008003200cc
:104ae000000278001000b00000026a004260af00cf
:104af00000f0a0000482d2000180b000e8ff37007f
:104b00000000200001002000000006008f1fd100df
:104b1000f50107008f87e9000000e00000000600b3
:104b2000809feb00f00107008f87e9000000e000a4
:104b3000000006002800fa00889fbe008a9fbe0081
:104b40008c9fbe0003866b00800007006400e100bc
:104b5000440032006408e1004a0032006100e100d4
:104b6000460032006108e10049003200ec064700cf
:104b70006000b8003d02be003d03be00f486570051
:104b80006011b8003d04be003d05be007d0320005d
:104b90000b0037000000a0008d06e9001300320072
:104ba0000402420085824a0006034b0087834b00c3
:104bb00000004000818048000201490083814900d3
:104bc0000802520089825a000a035b008b835b0053
:104bd000f0ff3b000802420089824a000a034b00b2
:104be0008b834b008d06e900edff3a008482720052
:104bf00086827200f707b2008782720001003200dd
:104c0000150020001e0490003e0b90000603540087
:104c1000e63fb0000368a300070032000000a700d1
:104c20000500a0008301d1000281d3008180d30060
:104c30000080d3000603e8008301d1000281d30085
:104c40008180d3000080d3000002eb000482d200f8
:104c50001200070003f0a1000cf0a70003f0a00071
:104c60004e003700640247006408e100480032004b
:104c70003400be003401be00f6ff37006108e100d9
:104c8000430032006011b8006000b800f1ff370047
:104c900003ff270002002000fbff37001800200060
:104ca00057002000080453000d003d0006002000be
:104cb00097fc2f000740e1001e0034008482720040
:104cc000610260008301d1000281d3008180d300a2
:104cd0000080d3000804e800f8ff3a0047002000f5
:104ce0006104600005047400040464000d003200d7
:104cf00061004000e080480060014900e081490017
:104d000003b8a500070032000603e8006538e1009b
:104d100004003a008301d1000281d3008180d300d6
:104d20000080d300f87f20000830e1000300350048
:104d3000080378006000b8006011b8004433dd005b
:104d4000f300b2008301730000000600680447000e
:104d50000294be000094be00fc0447008694be008e
:104d60008494be0009007800a801070008007800bc
:104d7000a601070099007800814f70000b003b00ee
:104d80000800be00810107004f00b100030037009a
:104d9000f3ff2700f2ff2f006110b9004f06be009d
:104da0004f05be004f04be000080fa000000060060
:104db0008103780004f007000001be006000b80025
:104dc0000478a30013003a006220e10015003e00c1
:104dd0000d0039008301d1000281d3008180d3000e
:104de0008301d1000281d3008180d3008301d100ef
:104df0000281d3008180d3000538b000c42add00d1
:104e0000f300b2008381720007f0a70003f0a00056
:104e100000000600f3ff2700f2ff2f006110b90029
:104e2000fbff370003ff2700f7ff37001400fa00ed
:104e3000889fbe008a9fbe008c9fbe000004be00fb
:104e40000205be00680047000a90be000890be0040
:104e50006e0107000070a7000bf0a1003043200096
:104e60009e02900080825200b0fe2f000028e100d8
:104e700011003d00b0fc2f000028e10015003400b7
:104e80001e0990008e0890007e0090000501b00081
:104e90000201d1008180d3000080d3008502e800a8
:104ea000fbff3a000b00e000bcff3b00600010007d
:104eb000e0801800b9ff3700f0ff2f00f1ff270056
:104ec0000b00e000b5ff3b000100280000002000bf
:104ed000b2ff37006000b800b0ff37004f89de0036
:104ee00082017800700137002800fa00889fbe0018
:104ef0008a9fbe008c9fbe0003866b0093ff070055
:104f00000028a30064003a000128a30067003a00cb
:104f10000008a30062003a000108a30065003a00ff
:104f20001e009000be08900081064000ed3fb100d9
:104f3000f4805700ee019000111ab8008e0990001d
:104f4000311bb8009e099000311cb800511db800fb
:104f5000f485570046000700fe0190003a00070064
:104f60008b85e8003e0007008e0990004000070096
:104f7000ee019000340007008b85e8003800070040
:104f80008e099000400007009e0990001b18b80091
:104f9000890440000a854800fe01900034000700a3
:104fa0008b85e80038000700ee0190003000070014
:104fb0008e0990001b18b800890440000a8548003b
:104fc0000a98a30008003a000402420085824a00c1
:104fd00006034b0087834b0008044c0089844c0077
:104fe0000a054d008d06e900848272008502730077
:104ff0004c3add00850272000100320015002000ed
:10500000443ade001400b2004538de00cb45dd0036
:105010000b007000c540de00cb4ddd008b807000c2
:105020004549de00cb55dd000b017100c551de00a6
:105030000d03780019ff070003f0a1000cf0a70092
:1050400003f0a00055ff37001b18b8008502400090
:1050500006834800e0834b0060044c0007003700e3
:105060001b18b8000603400087834800faff37008a
:105070001b18b8008703400008844800e0844c00f7
:1050800060054d00000006001b18b8000804400031
:1050900089844800faff37000108a3003cff3a006a
:1050a0005800be005801be00e3ff37000008a3000f
:1050b00037ff3a0009047800f9ff370000000000cc
:1050c00007f0a2000a003700d5ef07000400be0079
:1050d00000000600020ab900001bb9000200b80077
:1050e0008100420081004300000006000000000033
:1050f0002800fa00889fbe008a9fbe008c9fbe00d9
:1051000007067800878669000c003b0003047800de
:105110008704780008f0a10009f0a100840f500076
:10512000858f5800860f5900890f5c0003003300fb
:105130000cf0a20001003a000cf0a10003ff0700f0
:105140006400e1005f003200780147006408e1007c
:10515000610032006c014700748557003200be00c8
:105160001201be003a04be001a05be001e039000e4
:10517000be0a90008503530006003d000004fd00b8
:105180008104fd000205fd008305fd008703ea00a0
:10519000050378000df8a300040032006004140039
:1051a000e0841c0060051d00e0851d006022b80041
:1051b0007d0320000d38e1008006eb000b00390074
:1051c0004433dd00f300b20083017300390037007f
:1051d000848272000d027800e10664008b85d100a4
:1051e0000a85d3008984d3000884d3008703e900ab
:1051f000f7ff3b0008004000898048000a01490091
:105200008b81490004003b0060001000e080180022
:1052100060011900e08119000358a3000900320061
:105220008d82720084827200610260008301d1006d
:105230000281d3008180d3000080d3000603e80000
:105240001b0037000348a30017003a000600e000e7
:10525000170034000603e9000d00a3000000480019
:105260008180480002014900838149000348a3006e
:105270000f003a000600e000090034000603e900d0
:1052800000004000818048000201490083814900fc
:1052900001003a000003eb000348a300f5ff3200d1
:1052a0006022b800020037008482720061826600ca
:1052b0007afe070003f0a1000cf0a70003f0a000a5
:1052c000b6fe3700640147006408e10002003a00be
:1052d0000df8a300aefe3a003200be001201be007f
:1052e000aefe370000000000889fbe008a9fbe000f
:1052f0008c9fbe000404be000605be00809fbe0059
:10530000829fbe002f000700040678000800be0040
:105310000a01be002b000700840678004f03be0080
:105320004f02be008d4f76007fb097001300330010
:10533000f0ff2f008b8f6b0006003b000d06660010
:105340000c00a7000a00370007f0a600100020009c
:105350000a003700880f5200898f5a008a0f5b00bd
:105360008b8f5b00030039001000200001003e001d
:105370000000200007f0a7000000ea004f06be0072
:105380004f05be004f04be0000000600e48240004e
:105390001078a30007003200640240001178a300d7
:1053a0003400be001401be00040032000330a70028
:1053b000000006003500be001501be000330a0004d
:1053c0000000060005ff270005826100070032008b
:1053d0000428e10001003200240005000600070057
:1053e00001003a004400050004080500020007001f
:1053f000f9ff3a00140005006f826100810270001d
:1054000085027100850272000000060080007800ad
:105410005002be005003be004439de00f700b20067
:10542000f37f200003016100090032000218e1004f
:1054300016003a00850172008301730083817300b6
:105440000008200015003a0040002000130037003b
:1054500085017200830173008381730005003a00a7
:1054600004a8be0006a8be00100020000b003700f4
:105470000201e9000402420085824a0006034b0053
:1054800087834b000748a300f9ff32000740a000c4
:1054900004a8be0006a8be002000200080009800de
:1054a0009200980000000600881f7800030478002e
:1054b0000300e00007003d0060001000e0801800dd
:1054c00060011900e081190002003b0001f02d008d
:1054d000030037000400070008f0a70003f0a00055
:1054e0004f04780000000600889fbe000082700014
:1054f000040271000482710024003200364320004f
:10550000c50020008383cf000a0039000541b100a7
:105510008283cf00070039000541b1008183cf00ad
:10552000040039000541b1008083cf00010039003b
:105530000541b10085c353006022b800120032005b
:105540000a003b0084827200610260008301d10086
:105550000281d3008180d3000080d3000603e800dd
:105560008743e800f7ff3a000700370000004000db
:105570008180480002014900838149000603e90057
:105580008743e900f9ff3a00c4fd07004f04be005d
:045590000000060011
:020000040000fa
:105594004f4b00000d0a000000410000542b000096
:1055a4004347000041540000543f00000d0a00002e
:1055b400002b00004347000041540000543a00000f
:1055c4002031000000410000542b0000434700003c
:1055d40041540000543d0000310d00000a00000059
:1055e4002b43000047410000435400003a200000d0
:1055f400312c000031000000415400002b43000016
:1056040047410000435400003f0d00000a00000021
:10561400566f000064610000666f00006e65000054
:10562400204900004e00000077770000770000005a
:105634006169000072740000656c00000061000084
:1056440069720000746500006c67000070720000ed
