:020000040000fa
:080000000001040000000000f3
:020000040000fa
:04000800c40200002e
:020000040000fa
:04000c00d602000018
:020000040000fa
:04001000e602000004
:020000040000fa
:04001400cc0200001a
:020000040000fa
:04001800de02000004
:020000040000fa
:04001c005e0400007e
:020000040000fa
:040020005e0400007a
:020000040000fa
:040024005e04000076
:020000040000fa
:040028005e04000072
:020000040000fa
:04002c005e0400006e
:020000040000fa
:040030005e0400006a
:020000040000fa
:040034005a0200006c
:020000040000fa
:040038005e04000062
:020000040000fa
:04003c005e0400005e
:020000040000fa
:040040005e0400005a
:020000040000fa
:040044005e04000056
:020000040000fa
:04004800960200001c
:020000040000fa
:04004c005e0400004e
:020000040000fa
:040050005e0400004a
:020000040000fa
:040054005003000055
:020000040000fa
:04005800ee020000b4
:020000040000fa
:04005c005e0400003e
:020000040000fa
:040060005e0400003a
:020000040000fa
:040064005e04000036
:020000040000fa
:040068005e04000032
:020000040000fa
:04006c005e0400002e
:020000040000fa
:040070005e0400002a
:020000040000fa
:040074002c0200005a
:020000040000fa
:040078005e04000022
:020000040000fa
:04007c005e0400001e
:020000040000fa
:040080005e0400001a
:020000040000fa
:040084005e04000016
:020000040000fa
:040088005e04000012
:020000040000fa
:04008c005e0400000e
:020000040000fa
:040090005e0400000a
:020000040000fa
:040094005e04000006
:020000040000fa
:040098005e04000002
:020000040000fa
:04009c005e040000fe
:020000040000fa
:0400a0000204000056
:020000040000fa
:0400a400ac030000a9
:020000040000fa
:0400a8005e040000f2
:020000040000fa
:0400ac005e040000ee
:020000040000fa
:0400b0005e040000ea
:020000040000fa
:0400b4005e040000e6
:020000040000fa
:0400b8005e040000e2
:020000040000fa
:0400bc005e040000de
:020000040000fa
:0400c0005e040000da
:020000040000fa
:0400c4005e040000d6
:020000040000fa
:0400c8005e040000d2
:020000040000fa
:0400cc005e040000ce
:020000040000fa
:0400d0005e040000ca
:020000040000fa
:0400d4005e040000c6
:020000040000fa
:0400d8005e040000c2
:020000040000fa
:0400dc005e040000be
:020000040000fa
:0400e0005e040000ba
:020000040000fa
:0400e4005e040000b6
:020000040000fa
:0400e8005e040000b2
:020000040000fa
:0400ec005e040000ae
:020000040000fa
:0400f0005e040000aa
:020000040000fa
:0400f4005e040000a6
:020000040000fa
:0400f8005e040000a2
:020000040000fa
:0400fc005e0400009e
:020000040000fa
:040100005e04000099
:020000040000fa
:040104005e04000095
:020000040000fa
:040108005e04000091
:020000040000fa
:04010c005e0400008d
:020000040000fa
:040110005e04000089
:020000040000fa
:040114005e04000085
:020000040000fa
:040118005e04000081
:020000040000fa
:04011c005e0400007d
:020000040000fa
:040120005202000087
:020000040000fa
:040124005e04000075
:020000040000fa
:040128005e04000071
:020000040000fa
:04012c009603000036
:020000040000fa
:04013000480400007f
:020000040000fa
:040134005e04000065
:020000040000fa
:040138005e04000061
:020000040000fa
:04013c005e0400005d
:020000040000fa
:040140005e04000059
:020000040000fa
:040144005e04000055
:020000040000fa
:040148005e04000051
:020000040000fa
:04014c005e0400004d
:020000040000fa
:040150005e04000049
:020000040000fa
:040154005e04000045
:020000040000fa
:040158005e04000041
:020000040000fa
:04015c005e0400003d
:020000040000fa
:040160005e04000039
:020000040000fa
:040164005e04000035
:020000040000fa
:040168005e04000031
:020000040000fa
:04016c005e0400002d
:020000040000fa
:040170005e04000029
:020000040000fa
:040174005e04000025
:020000040000fa
:040178005e04000021
:020000040000fa
:04017c005e0400001d
:020000040000fa
:040180005e04000019
:020000040000fa
:040184005e04000015
:020000040000fa
:040188005e04000011
:020000040000fa
:04018c005e0400000d
:020000040000fa
:040190005e04000009
:020000040000fa
:040194005e04000005
:020000040000fa
:040198005e04000001
:020000040000fa
:04019c005e040000fd
:020000040000fa
:0401a0005e040000f9
:020000040000fa
:0401a4005e040000f5
:020000040000fa
:0401a8005e040000f1
:020000040000fa
:0401ac005e040000ed
:020000040000fa
:0401b0005e040000e9
:020000040000fa
:0401b4005e040000e5
:020000040000fa
:0401b8005e040000e1
:020000040000fa
:0401bc005e040000dd
:020000040000fa
:0401c0005e040000d9
:020000040000fa
:0401c4005e040000d5
:020000040000fa
:0401c8005e040000d1
:020000040000fa
:0401cc005e040000cd
:020000040000fa
:0401d0005e040000c9
:020000040000fa
:0401d4005e040000c5
:020000040000fa
:0401d8005e040000c1
:020000040000fa
:0401dc005e040000bd
:020000040000fa
:0401e0005e040000b9
:020000040000fa
:0401e4005e040000b5
:020000040000fa
:0401e8005e040000b1
:020000040000fa
:0401ec005e040000ad
:020000040000fa
:0401f0005e040000a9
:020000040000fa
:0401f4005e040000a5
:020000040000fa
:0401f8005e040000a1
:020000040000fa
:0401fc005e0400009d
:020000040000fa
:10020000af4a21000e7f24000e018800000000008c
:10021000000020000000e000020032000001200089
:100220002002880014000700f00107000000e00031
:1002300003003a00000528000100200002003700fa
:100240000000200001002000810f7000010032003a
:1002500014000700000020000000e000020032004f
:1002600000000200000000005a920200000000009e
:100270000040da000000fe004440a9002063200096
:100280000000e00003003200002020009001880000
:100290004440a800000006008a1f78008b1f7800e9
:1002a00000000600a1028800800478000000eb0036
:1002b0001f003700e284440054a0b4009905ba003e
:1002c000e284440054a0b4009906ba00e2844400d9
:1002d00054a0b4000006eb00476fde00fd07b2003b
:1002e000ae018800636ce10003003a00eaff0700fa
:1002f0000000eb000e003700606ce10008003a00df
:10030000004deb000a05e800020039003420ec0043
:100310000af0a0008b05e900f9ff3e000400370059
:100320006168e100010032000086eb000b0007006d
:1003300019c7ba001905ba000e04e00003003a001c
:100340000a00e000dbff3a0000000600fe07b200f2
:10035000ae0288008a047800f5ff37000cd0a300b5
:10036000e20f4d001c00390089027800354dba00bb
:100370000a05e800020039003420ec000af0a00071
:100380008b05e9000f003200254dba000a05e80090
:10039000020039003420ec000af0a0008b05e900cf
:1003a000080032000c00e0000600320015cdba0053
:1003b0000a05e800020039003420ec000af0a00031
:1003c0008b05e9008984e80054a0b4000b00e0002c
:1003d000e2ff3a00000006009902ba00055d7800cd
:1003e0008b05e900f7ff3200c82ade00055d7800c2
:1003f0008b05e900f3ff32000c00e000f1ff320052
:1004000019ddba00eeff370010660400000000009e
:10041000240f040000000000500f04000000000042
:100420007a0f040000000000a81204000000000081
:10043000c212040000000000f012040000000000de
:10044000fc1b040000000000b025040000000000b8
:10045000320b0400000000003600f800809fbe0050
:10046000829fbe00849fbe00869fbe000000fa00ef
:1004700050048000680060000000e00002003200cc
:10048000b64607008a60a9000080fa004f03be004c
:100490004f02be004f01be004f00be003600f90003
:1004a000004006000000fa008fc0a9000080fa009a
:1004b000004006003600f800809fbe00829fbe000c
:1004c000849fbe00869fbe000000fa00d0428000dc
:1004d0000000e800d0428800d04280000000e00028
:1004e00002003200414707005a28ef00f04921007e
:1004f000104078008040e800f04921000148780071
:10050000e049210011c0b300014878008860a900cb
:100510000080fa004f03be004f02be004f01be0034
:100520004f00be003600f900004006003600f8001b
:10053000809fbe00829fbe00849fbe00869fbe003b
:100540000000fa0034450700104a210010407800ee
:100550008040e800104a210001487800004a21004c
:1005600011c0b300014878008900a9000080fa009a
:100570004f03be004f02be004f01be004f00be0041
:100580003600f900004006003600f8008020a9007f
:100590000000eb00d54707003600f800d8470700f9
:1005a0008040a90010002000d04707003600f80066
:1005b0008060a90020002000cc4707003600f8002a
:1005c0008080a90030002000c84707003600f800ee
:1005d0008600a90070002000c4470700809fbe006d
:1005e0000000fa009163800000202000008060007d
:1005f0000000e000020032009980a90025003700c9
:100600008980a9001e0037008063800010407800b8
:100610000080fb00e01c8800806380000000e80090
:10062000806388008163800040cf2000808f50006d
:1006300002003a0040c72000806388009063800079
:100640000080a10090638800816380007063800057
:10065000808f50000a003a0000000000d11c80008a
:1006600000102000008060000000e000fbff32006e
:10067000906380000090a000906388000500370020
:10068000d11c800000202000008060000000e000fd
:10069000ddff32000080fa004f00be00004006007f
:1006a000809fbe000000fa001800370050638000f1
:1006b000f11c800081407800014878005063800080
:1006c0000000e800506388005163800030df2000a4
:1006d000808f500002003a0040cf20005063880015
:1006e000906380000010a100906388005163800037
:1006f00060638000808f500004003a0090638000a7
:100700000000a0009063880004003700d01c800027
:10071000610060000000e000e4ff3a008960a90089
:100720000080fa004f00be0000400600801f7800e5
:100730000000fa00d01c8000620060000000e000b1
:10074000010032009a23a9009020a9000080fa003d
:100750004f00780000400600809fbe000000fa00b5
:100760004143800000202000008060000000e00085
:10077000020032009be0a9001f0037008be0a900b7
:100780001800370030438000104078000080fb00e4
:10079000901d8800304380000000e800304388004e
:1007a00031438000a0a62000808f500002003a0054
:1007b000a086200030438800404380000080a100d4
:1007c000404388003143800020438000808f5000e8
:1007d00004003a00404380000090a000404388009d
:1007e00005003700811d800000202000008060008f
:1007f0000000e000e3ff32000080fa004f00be007e
:1008000000400600809fbe000000fa00180037007c
:1008100000438000a11d80008140780001487800dd
:10082000004380000000e80000438800014380008e
:10083000a0c62000808f500002003a00a0a6200031
:1008400000438800404380000010a100404388001e
:100850000143800010438000808f500004003a0064
:10086000404380000000a00040438800040037009f
:10087000801d8000610060000000e000e4ff3a009d
:100880008bc0a9000080fa004f00be0000400600a7
:10089000801f78000000fa00801d80006200600068
:1008a0000000e00001003200b023a9009040a90040
:1008b0000080fa004f007800004006000040da0097
:1008c0000000fe009803e20004003d009b43ab00e3
:1008d000020032009b03ab00feff32000040da0052
:1008e000feff37000a00fa0011002000b1bf9f0090
:1008f000c0bf9f006a8057006a1507004fb8970075
:100900000080fa00000006000a00fa0051002000f2
:10091000b1bf9f00c0bf9f006a80570063150700ea
:100920005fb897000080fa0000000600889fbe00b4
:100930008004780040a580000000e00004003a0038
:100940000e0007000084eb000000e0000800350006
:1009500048a580000900e0000500320009004400bd
:10096000060007000000e00001003d000084eb00ed
:10097000080078004f04be000000060080007800e8
:100980000100e00003003a000000200040a58800bc
:10099000000005000080eb0002002000828f500064
:1009a00002003e0041a588000000eb0000000600a8
:1009b0000600fa00000f780011079800220798003f
:1009c00000000000811d80000010200000806000f9
:1009d0000000e000fbff32001e009000ae0090001f
:1009e000d64007000080fa00000006000000050065
:1009f00003f0a200889fbe008a9fbe008c1f780073
:100a000011010700180133006450e1004f0032006b
:100a10006420e1005200320003826c0007003b00ba
:100a20000905d0000306d000820f54000c065d00bb
:100a300002003900020032008901780003067800c4
:100a40008582550004003d000003fd008103fd0088
:100a50008502ea008b854200840f720002003b0091
:100a600060001000e08018006011b8000005eb0085
:100a70007a28e1000a00390006007800c75ddd0031
:100a8000f707b200878075002d0037008281710062
:100a90000a017800610560008180d1000080d300e8
:100aa0008502e900f9ff3b00060440008784480006
:100ab00002003b0060041400e0841c000988a300cd
:100ac000070032008a817100828171006101640037
:100ad0008904d1000884d3008b05e8001700370093
:100ae0000978a30013003a000b00e0001300340063
:100af0008b05e9000804440089844c000a44740012
:100b00000978a3000d003a000b00e0000700340054
:100b10008b05e9000804440089844c0001003a0078
:100b20000b0020000978a300f7ff32000001eb0062
:100b300002003700828171000a01780087000700f7
:100b40000cf0a70001f0a000d00037006420e10005
:100b500002003a00838f6c00d00033000801be0011
:100b60000200be00c9003700889fbe008a9fbe00f9
:100b70008c1f7800b4000700bb00330003866c00b4
:100b80006450e1002e0032006420e10033003200a6
:100b90006150e1002f0032006120e100310032009d
:100ba00085855500eb07b0000900200008042000ef
:100bb000050037000804440089844c000a00310015
:100bc0000603430087834b000001530081815b00d3
:100bd000f8ff33000203be000800a0000804440030
:100be00089844c00f6ff3900c639dd0083017300ab
:100bf00001003200130020008904d1000884d300d2
:100c00000998a300050032000800a7000300a00017
:100c10008904d1000884d3008b05e8008904d10041
:100c20000884d3000001eb000281d2004b000700d2
:100c300001f0a1000cf0a70001f0a0009300370024
:100c40006420e100950032000801be000200be00f1
:100c5000f7ff37006120e100900032006000b8002b
:100c6000f3ff37000000200001f82700f0ff3700f5
:100c7000839f68000100e00002003d00600010005a
:100c8000e08018000300e00002003d006001110058
:100c9000e0811900ed0007004f00e00002003b007a
:100ca00060001000e0801800000006001400200022
:100cb000f8013700f4ff2f00f60137000001be00f5
:100cc0004c0007000470a70003f0a1006509b10003
:100cd000160032000d0035006828e10006003500de
:100ce000f0ff2f00f1ff27000300e00013003b009e
:100cf000010028000000050000004000818048003d
:100d00008502e900fcff3a0008003700f88f420036
:100d100002003c008000eb00000005008100d100d3
:100d20000080d3008502e800fcff3a000300e000e9
:100d300002003b0060001000e08018000000060088
:100d40004f89de0082017800ed0137006011b800a4
:100d5000fb01370004002000ce0137008100200095
:100d6000618055000b003d000b00200061fe2f004c
:100d70000100e1001d003400828171006101640006
:100d80008904d1000884d3000000e800faff3a008b
:100d90007100200061006400030070000200600028
:100da0000900320061044400e0844c000988a50079
:100db000050032008b05e8006808e10002003a00f7
:100dc0008904d1000884d300f20f20000258e1000a
:100dd00005003d00c75ddd00f907b20089807500a0
:100de00008007800000006000bf827008b00780050
:100df00000000500c70ade00f107b200f50fb200df
:100e000008003200e1cf4200020032000170a00071
:100e100024000500810f7000010032000408050065
:100e200044000500810f700002003a001400050024
:100e30008502e9000000400081c04800fcff3b0043
:100e40000170a000240005000004be00e9ff0700b7
:100e50000003be000405be000200be00e5ff07005f
:100e6000844f7500000006000200be006450e100df
:100e7000050036006420e100020036000968a30086
:100e800001003a000800be000160a0004f06780093
:100e90004f05be004f04be0000000600f0ff2f000b
:100ea000f1ff2700f9ff3700889fbe008a9fbe0030
:100eb0008c1f7800e4ff0700ebff330003866c0013
:100ec0006450e100240032006420e1002700320079
:100ed0006150e100220032006120e1002100320077
:100ee0008b854200eb07b1000134b800003ab8002e
:100ef0000804420089844a00013ab8000030b80072
:100f00008880400009014a000400330000004000ce
:100f100081804800020149008b05e900c909dd0014
:100f2000830170000100320013002000c814de00ad
:100f30004814dd004709de001200b200c808de00d8
:100f40000884700085ff070001f0a1000cf0a700e5
:100f500001f0a000cdff37006120e100cfff32009b
:100f60000801be000200be00f7ff37006150e1003b
:100f7000fcff3a00c9ff3700889fbe008a9fbe0071
:100f80008c1f78000004be009aff07000478a300bd
:100f900026003a006120e1002500320009f8a30094
:100fa00025003a006420e10021003200f507b1007d
:100fb0000508a300020032000000400081804800c4
:100fc0006044b80003102000020020000000400030
:100fd000818048000805440089854c000a054100cd
:100fe0008b8549000a0550008b85580003003300ab
:100ff0000a00be0002047400838474008301d100df
:101000000281d300830f7100f0ff3a008904d10000
:101010000884d3006001490082017800c1adde0080
:10102000fb07b0004dff070098ff37000960a000e4
:101030000800be0095ff370012022000f24288002f
:10104000f0ff2f00f1ff270090ff37006022b8006b
:10105000060220000000d0008180d2000482d2006d
:101060008582d2000000a0000202520083825a0052
:10107000030031000202420083824a000000a10006
:101080000603e900f3ff3a0000000600889fbe0057
:101090008a9fbe0030044200b0844a0030054b00f5
:1010a00090854b006000b1000898be000a90be0019
:1010b0000440e10005c8e10006d0e10007d8e100e6
:1010c00002003100680040001008e8004f05be0033
:1010d0004f04be0000000600889fbe008a9fbe002d
:1010e0003004be002005be000418540005985c00c2
:1010f00006185d0007985d00110020000440e10023
:1011000005c8e10006d0e10007d8e1000100390080
:101110008000eb00108810004f05be004f04be0099
:10112000000006001200fa00889fbe008a9fbe00e1
:101130008c9fbe00e0b79f00f1b79f0082bf9f0069
:1011400093bf9f000605be000404be000000eb0034
:10115000d0b79f00c0b79f00b0b79f00a0b79f0057
:1011600090b79f00000678005fb19700cfb097005e
:10117000820141003fb097000200e00004003d0002
:10118000370007007e805700c0ff070003003700cc
:10119000330007007e805700cfff0700dfb69700bf
:1011a0000d00e0000c0035006fb29700ffb2970011
:1011b0000fbb97009fbb970010002000010020008c
:1011c0006011b80000027200818272000203730095
:1011d000838373001b0007000c06e8000104200055
:1011e000810f5600e0ff3a000d00e00004003d00d2
:1011f0000802be000a03be007e805700a3ff07005e
:101200005fa897000000e00005003a001fb29700b9
:10121000afb297003fb39700cfb397000900070024
:101220006fb09700ffb097000fb997009fb9970074
:101230004f06be004f05be004f04be000080fa00fe
:10124000000006000100070000000600a4b79f0090
:10125000b5b79f00c6b79f00d7b79f000000060034
:101260004f09de0082817100b3b79f004f01de009d
:101270008180400082807000a1b79f008fb09700ee
:101280004f09de00000040000200700090b79f0090
:101290007fa897004f01de008180400082807000af
:1012a00081b79f000d0007004f3ade0000004000ac
:1012b00004007000f0af9f00080007000402420025
:1012c00085824a0006034b0087834b00dfff07003f
:1012d0000802be000a03be00000006002fb29700fd
:1012e000bfb297004fb39700dfb39700000006002e
:1012f000881f780018002000881f780089ff0700e9
:101300008f87e9004f04780000000600801feb0083
:1013100084ff07008f87e90000000600889fbe0059
:101320008a9fbe00e00f5000e08f5800e00f590088
:10133000e08f59000c003d006044b8006055b800d3
:101340000000540081805c0002015d0083815d002b
:10135000180020001500070008003d0018000700d5
:101360000004eb00050037000004eb000f0007004d
:1013700002003d001200070018002000dcff0700fb
:101380000800e000060032006022b8006033b800b8
:101390000000520081805a0002015b0083815b00e3
:1013a0004f05be004f04be0000000600e00f5200d3
:1013b000e08f5a00e00f5b00e08f5b00000006004a
:1013c0006044b8006055b8000402540085825c0097
:1013d00006035d0087835d0000000600889fbe0055
:1013e0008a9fbe008c1f7800e00f5000e08f5800ed
:1013f000e00f5900e08f59000d003d006044b80037
:101400006055b8000000540081805c0002015d005e
:1014100083815d001c0020000820e10009a8e10094
:101420000ab0e1000bb8e1000d003d0008003700f4
:101430000006eb00e00f5200e08f5a00e00f5b0067
:10144000e08f5b0006003d006044b8006055b800c6
:101450000402540085825c0006035d0087835d0002
:10146000aaff07000c00e000060032006022b8006e
:101470006033b8000000520081805a0002015b0016
:1014800083815b004f0678004f05be004f04be000d
:1014900000000600889fbe008a9fbe00841f78005f
:1014a00069fe07004f00780011003300f0ff2f00a5
:1014b000838f6c0006003b00040565000a00a7004e
:1014c0000800370009f0a6001000200008003700cf
:1014d000820f5400838f5c0003003900100020004d
:1014e00001003e000000200009f0a7000000ea0013
:1014f0004f05be004f04be000000e00000000600e3
:10150000881f7800030478000300e00007003d0016
:1015100060001000e080180060011900e0811900ef
:1015200002003b0001f02d0003003700040007001b
:1015300008f0a70001f0a0004f04780000000600aa
:10154000889fbe008a9fbe00008270000402710066
:1015500004827100260032000004be000200be00ba
:101560006011b8006b092000950220000182cf00b5
:101570000a0039000541b1000082cf0007003900a0
:101580000541b1000982cf00040039000541b100d6
:101590000882cf00010039000541b1000542520028
:1015a000120032000a003b00828171006101640078
:1015b0008100d1000080d3008984d3000884d30047
:1015c0008b05e8000442e800f7ff3a000700370007
:1015d0000804440089844c000000480081804800d1
:1015e0008b05e9000442e900f9ff3a00dbfd070042
:1015f0004f05be004f04be00000006006900e10078
:10160000040035006d00e100030034000002b10069
:101610000100320000000500100005008000780085
:101620001104b100030035009101b10001003c003c
:101630000050a00000000600800078001106b100f4
:10164000030035009101b10001003c000050a100f1
:101650000000060010002000bf000700100020005e
:1016600000000700000478000600370001804000f9
:10167000a2a48000620078008100e800b1a4880084
:1016800000000100b1a48000c0a48000808f500041
:10169000f6ff390080312100a0a48800200220003c
:1016a000c0a488000800780086fc07000000e00065
:1016b0002f003200c0017800e38f51002c0036006b
:1016c0000308a3002a003a00e1a480000100e00022
:1016d00002003200810f5000040031001100980018
:1016e000e0a4880016003700820078001101900005
:1016f0000200e00002003200800f5100faff3900c2
:101700001102780084824000850f500018003900d3
:10171000808f520003003a008308420001007800e5
:10172000070037000200e0000300320083014000a0
:10173000830f51000e0039001200980090009800ad
:10174000900090000100e00009003200100140000c
:10175000828f500006003a00a24921000009eb00e8
:1017600010017800110841009100900011009800cc
:1017700000000600889fbe0000047800d1a480000d
:101780000100e00002003200010078000d00370087
:10179000e1a48000c049210004003700910f5400eb
:1017a000250036000180e800910090000100e00073
:1017b000faff3a0010003700920f54001e00360066
:1017c0000280e800100178000200e000faff3a0011
:1017d00011017800e1a48000c04921000400370015
:1017e000910f5400140036000180e8009100900031
:1017f000828f5000faff3a0019a58000888f5400ac
:10180000010031008804780009007800e800070032
:101810000000e00004003a00888f54000500320008
:101820008904d100f5ff3700091878009fff0700f1
:10183000d2ff37000000eb004f04be00000006009e
:10184000881f7800630440000800a1008000eb00be
:10185000800f540021003600e30f540001003e00c9
:101860004800200008007800c2ff07008000eb005d
:101870000000e0001900320090007800910178002b
:1018800064815100880f5100030031001101900064
:10189000020878000700370008814000020878003d
:1018a00091019000130198001001780011091400b3
:1018b00088087800100178000000eb000200e000ca
:1018c00004003200920190000300e00001003200a9
:1018d0000280e800d0a488008180e8000100780040
:1018e0004f047800000006000900370030427800fd
:1018f000b1417800834f52000400320010002000f4
:10190000060031000080eb00000006000201e90043
:101910000200e000f5ff3a000000eb0000000600c6
:101920008001780002003700b15978000201e90017
:101930000200e000fcff3a00000006008001780091
:1019400002003700815978000201e9000200e0003e
:10195000fcff3a00000006000800fa00889fbe0065
:101960008004780011002000090078003e00070084
:1019700000047800e10f440035003200e10f54000c
:10198000350032000800e000060032008000eb0065
:101990000900780034000700090078000800010001
:1019a0002d0037006000b8006011b800a0bf9f0094
:1019b000b1bf9f00c2bf9f00d3bf9f006148b90065
:1019c00061005000e0805800e50f5000e08f5800a3
:1019d0001a003e0000600100050037000d003700ce
:1019e00009003700050037000d0037000f003700f1
:1019f00010242400214525000e0037006004250036
:101a0000510422000b00370090c42400c1042200be
:101a10000800370090e4240041052200050037004b
:101a20003055240071642500020037004055240021
:101a300021d52400a0bf9f00b1bf9f00411f2100fe
:101a40006c805700460807001000200005ff0700c3
:101a500008007800010037000000eb004f04be00d2
:101a60000080fa00000006000001e9000080eb00a1
:101a7000e50f510006003e00808f50000400320048
:101a800002014100034721006300790081317900a0
:101a90000000060000017800820178003204e000b6
:101aa000fdff3a0003017800b14178000359780046
:101ab0000304e000fcff3a000000060002003700cb
:101ac0000304e00006003200000178000200780004
:101ad000b041780081cf5100f9ff3a000100370092
:101ae0000001eb0002007800000006000200370051
:101af0000204e0000b00320081017800000278004f
:101b000030417800b14f5100f9ff32001000200041
:101b100014427800934f5200030031000080eb0024
:101b2000000006000000eb00000006000001780045
:101b3000b1417800035978000304e000fcff3a004b
:101b40000000060080007800010178003104e00008
:101b5000fdff3a000000510000000600889fbe0013
:101b600081047800194478000804e0000e00320077
:101b700006003700d24178000304e0000a0032007a
:101b8000d1cf1100fbff32000000e8008800fb000d
:101b9000caff07000000e0000300320009017800de
:101ba00080007800f3ff37004f04be0000000600fd
:101bb000800078000000eb000100e0000500340028
:101bc0000100780059fb0700e10f400001003a00d6
:101bd0000000eb0000000600ee874700889fbe0073
:101be0008a9fbe008c9fbe008e1f7800f0b79f00ba
:101bf0000106780082057800000478000805780066
:101c00000a047800b84678000d00fb007bfe070050
:101c10000000e000f9ff3a00d0c2b30080cf5600c8
:101c20000300320000c0e90080cf560002003a00f5
:101c30000a05e80001003700804678000b00e0004c
:101c400005003500e18f55000300320040022000fe
:101c5000808f5500060034006044b8000c00e0009e
:101c6000720032007fb09700000e78004800370005
:101c70000b00e0000e003200f08f55001a003a0011
:101c800000c3b3009a4f100017003a001a409000aa
:101c900081c7b300814f50000300320081c5b300fb
:101ca000814f500010003a000a85e8000e0037000e
:101cb000ab00200000c3b3009a4f10000a003a00a6
:101cc0001a40900081c7b300814f500004003200d9
:101cd0008b00200081c5b300814f500002003a0004
:101ce0000a85e8000b0120000a0078000002780055
:101cf0000400780001c3b300b0cf1000fbff320036
:101d0000040778006044b800b4b79f000d003700a6
:101d10004128210081405000c1ef9f006159b90066
:101d20000800be00191207004fea97000401fb00eb
:101d3000cf91de00c8b79f00d9b79f0002044000d2
:101d4000838448008e0278003e00fb0085bf9f0020
:101d500032fe07000b017800800078004028210047
:101d6000300807008fba97000000e000e8ff3a0053
:101d70003fb29700850f550007003a006044b80055
:101d80000c00e00029003200ffb29700050e780039
:101d90006044b8002500370004825200902a2100d8
:101da00060c07d000000fb000002520017003300fd
:101db00011003a004fe997000200fb00cf80de00df
:101dc0000000540081805c00800f5400818f5c0013
:101dd000090039006159b90085bf9f009bfc0700cd
:101de0008fba97004fb19700dfb19700820f500074
:101df000838f58000500320020022000f042880046
:101e00000084eb008084eb0005003700d0c2b300f3
:101e100080cf560002003a0060041400e0841c00e9
:101e20000c00e00001003200050e78000800be0042
:101e30004f0778004f06be004f05be004f04be009e
:101e4000ef00b10000000600889fbe00000478008b
:101e50000100780082047800880178000901780088
:101e60001100200086070700890f50000100320092
:101e70000004eb00080078004f04be0000000600dc
:101e80000000fa00e88157004fb997008000780001
:101e900040f220009c0207000080fa0000000600cb
:101ea000900178000200e00002003a000308e90017
:101eb000050037008080eb001304e00002003200d0
:101ec0000308e8009300fb00010078000000060012
:101ed0000200fa00f0bf9f00ea8157003fb9970067
:101ee0008f80e90000f52000d10007000080fa0093
:101ef00000000600889fbe00000478000203be00b8
:101f0000810478000802780089017800120020001e
:101f10000600be00530a0700890f5000010032007e
:101f20000004eb00080078004f04be00000006002b
:101f30006800fa00889fbe008a9fbe008004780077
:101f40000104780082057800030578008400780099
:101f500000f92f000f004000400a0700d98f9f00b2
:101f6000fb8f9f000000eb00a09f9f00e88f9f0069
:101f70009a84fb000904fb008904ea00cf4cde00d0
:101f800050022000800f54000d003200e18f5400f9
:101f90000b003a00090178008a0078007f889700da
:101fa000df89970003000100f08f9f000000e00030
:101fb000950032002f9897000000e800a09f9f0036
:101fc0000905450050022000800f54000400320033
:101fd0000800e000e6ff3a002f9897008b003700da
:101fe0000000eb00809f9f00f0979f00e0979f000c
:101ff000d0979f00c0979f00b0979f0007003700c1
:10200000614021000100500000004000a13f21007c
:1020100061007800cf98970001007000c09f9f007a
:102020000a04780008057800ba4478008900fb00ab
:1020300060402100a1fe07000000e000f0ff3a0030
:10204000a1c2b30081cf54000e003a008f889700e0
:102050000180e900808f9f0010007800b09f9f00f2
:102060000000e00005003d000000ea00b09f9f0076
:102070004f9897000020a000c09f9f000804e80030
:1020800010003700b09f9f00880078000000eb0030
:1020900005003700f3ff2700830f500002003200d5
:1020a0006a02b90004004100010478008800780049
:1020b0003101fb000203b100e90f5100f5ff3600ca
:1020c000b09f9f00e0c2b300984f100002003200a2
:1020d0000080eb0019003700a0c2b300d84f1000f9
:1020e00007003a008f8897000180e900808f9f00e9
:1020f00010007800909f9f000804e800100037004f
:102100000000eb00909f9f008800780005003700da
:10211000f3ff2700830f5000020032006a02b9006b
:102120000400410001047800880078003101fb00c0
:102130000203b100e90f5100f5ff3600909f9f00a8
:10214000984478008900fb00203f21005bfe0700d7
:102150000000e000020032000804e800010037003f
:102160008044eb00a97f9f0080c6b30080cf54005d
:1021700006003a0098cf140010003a006640500064
:10218000a07f9f000804e8000c003700c0c6b30021
:1021900080cf540009003a0098cf140007003a009d
:1021a00067404000d84f100002003a006e405000d7
:1021b0000100370010c7b300a07f9f001801fb008b
:1021c000c3fb2f008f81410001f92f008f80400059
:1021d00020f92f000f004000d00107000000e000b0
:1021e00009003a00c1fb2f008f80400020f92f002a
:1021f0000f004000bf0807000000e00002003500ab
:102200000805e8005aff37000080eb004f05be00cc
:102210004f04be000080fa000000060003027800b0
:102220008201780001017800a1f7200040ff37000b
:102230001200fa00889fbe008a9fbe008c1f7800a3
:1022400002047800a0b79f00b1b79f008300780018
:1022500078805700810907000000eb00e0b79f007d
:10226000d8b79f00000478005fb697009c85fb00fc
:102270008b04fb008b05ea00cf5dde0009007800cf
:10228000defc07000000e0001b0032006fb097008a
:102290000000e800e0b79f00120020008000eb0083
:1022a0003fb09700afb19700030001000005780030
:1022b0000a007800d1fc07000000e000f3ff3a00bc
:1022c0006fb09700e10f4500080032000000e90000
:1022d000e0b79f000001eb008a0078003fb0970054
:1022e000afb1970003000100220037000000e900b1
:1022f000e0b79f001f00370050022000808f54007d
:1023000002003a000b05e900180037000b057800c1
:10231000160037006fb097000000e800e0b79f009c
:10232000120020008000eb003fb09700afb1970093
:1023300003000100bc00fb00810f50000b003200c5
:10234000e10f40007c003200efb097008100e9000f
:10235000e1b79f000001eb00800078003fb09700dc
:10236000afb1970003000100730037000a05e900d0
:10237000e8ff3b005fb097008b054000dbb79f0094
:1023800050022000808f5400030032000900e0005a
:10239000b5ff3a00680037009b4078000040eb0032
:1023a000a2c2b30082cf500003003a008b05e800c0
:1023b000dbb79f0001407800a0f79f000000eb0012
:1023c00080bf9f000b0037000fb89700f2ff270077
:1023d000820f5000050032006a01b90000fd2f0095
:1023e000020040000100400080bf9f000a05e80095
:1023f000dab79f005fb597009a4478008900fb0028
:1024000000fd2f0001004000e90f5000eeff3600f4
:10241000c0472100a9fd07000000e00003003200d2
:102420000a05e800dab79f00010037008044eb009e
:10243000b9f79f005fb0970081c6b30081cf540009
:1024400004003a0090cf14000b003a00e6c05000a0
:1024500006003700c1c6b30081cf540006003a0021
:1024600090cf140004003a00e5c04000b1f79f008f
:102470000000e800d0b79f005fb097009000fb001d
:10248000304821008dfd07000000e0001a003a00ee
:102490006fb097000000e800e0b79f001200200036
:1024a0008000eb003fb09700afb197000300010040
:1024b000800478000900780050fc07000000e0006c
:1024c000f3ff3a006fb09700e18f4400080032003c
:1024d0000000e900e0b79f000001eb0089007800f0
:1024e0003fb09700afb19700030001000200370032
:1024f0000000e900e0b79f007c8057003b0a07001e
:102500000000e00003003c000800e0000a003a0080
:10251000080037004ff097000004e000010032008f
:102520000804e8005fb097000000e800d0b79f0003
:102530004dff370000047800080078004f0678004f
:102540004f05be004f04be000080fa0000000600e8
:10255000889fbe00800478000203be00010478005a
:102560006149b800898fd2008381d20008027800c7
:102570000600be004f0e0700088044004f04be0056
:1025800000000600881f7800020478000801780027
:10259000e3fc0700080040004f047800000006003c
:1025a0000000fa00881f7800000478006a82570053
:1025b000bfb9970008017800812a2100202c210052
:1025c000160007000000e000020035008040eb002c
:1025d000017478004f0478000080fa0000000600c3
:1025e000889fbe00000478000203be0081047800ca
:1025f0000802780089017800120020000600be0061
:1026000098080700890f5000010032000004eb0019
:10261000080078004f04be00000006006800fa00c1
:10262000889fbe008a9fbe00800478000104780065
:1026300082057800030578008400780000f92f00f7
:102640000f00400085080700d98f9f00fb8f9f0077
:102650000000eb00a09f9f00e88f9f009a84fb0082
:102660000904fb008904ea00cf4cde005002200080
:10267000800f54000d003200e18f54000b003a002f
:10268000090178008a0078007f889700df89970029
:1026900003000100f08f9f000000e0009500320071
:1026a0002f9897000000e800a09f9f0009054500b3
:1026b00050022000800f5400040032000800e000a7
:1026c000e6ff3a002f9897008b0037000000eb00e0
:1026d000809f9f00f0979f00e0979f00d0979f00fa
:1026e000c0979f00b0979f0007003700014221006c
:1026f00001005000000040004141210061007800cd
:10270000cf98970001007000c09f9f000a047800d6
:1027100008057800ba4478008900fb0000422100d7
:10272000e6fc07000000e000f0ff3a00a1c2b300a1
:1027300081cf54000e003a008f8897000180e90095
:10274000808f9f0010007800b09f9f000000e00085
:1027500005003d000000ea00b09f9f004f989700e1
:102760000020a000c09f9f000804e8001000370070
:10277000b09f9f00880078000000eb000500370044
:10278000f3ff2700830f5000020032006a02b900f5
:102790000400410001047800880078003101fb004a
:1027a0000203b100e90f5100f5ff3600b09f9f0012
:1027b000e0c2b300984f1000020032000080eb002e
:1027c00019003700a0c2b300d84f100007003a002c
:1027d0008f8897000180e900808f9f0010007800ab
:1027e000909f9f000804e800100037000000eb00f5
:1027f000909f9f008800780005003700f3ff2700b6
:10280000830f5000020032006a02b9000400410048
:1028100001047800880078003101fb000203b10058
:10282000e90f5100f5ff3600909f9f009844780013
:102830008900fb00c0402100a0fc07000000e00070
:10284000020032000804e800010037008044eb0079
:10285000a97f9f0080c6b30080cf540006003a00d5
:1028600098cf140010003a0066405000a07f9f00ef
:102870000804e8000c003700c0c6b30080cf540045
:1028800009003a0098cf140007003a006740400062
:10289000d84f100002003a006e405000010037008f
:1028a00010c7b300a07f9f001801fb00c3fb2f00df
:1028b0008f81410001f92f008f80400020f92f0007
:1028c0000f004000150007000000e00009003a007a
:1028d000c1fb2f008f80400020f92f000f00400027
:1028e000040707000000e000020035000805e800ca
:1028f0005aff37000080eb004f05be004f04be00ba
:102900000080fa00000006000302780082017800cf
:1029100001017800012f210040ff3700889fbe0091
:102920008a1f78000004780082447800030578004c
:1029300070c6b30080cf540021003c0000c0e90005
:1029400080cf5400d5003d007240500080cf54002d
:102950003c0132000d003c006c40500080cf540020
:102960006d013c0000c0e90080cf5400cb003d0069
:1029700050c2b30080cf5400640132007c4040005c
:1029800080cf540064013a00c400370010c6b30081
:1029900080cf5400c100320004003c006940500068
:1029a00080cf54005c013a006900370030c6b300a4
:1029b00080cf5400180032000040e80009003700c2
:1029c00000c7b30080cf54001001320008003c0063
:1029d00000c0e90080cf5400d90032005c003c0008
:1029e0006540500080cf54004b013a000f00370083
:1029f00050c7b30080cf5400550032006340400000
:102a000080cf5400520032006540500080cf540007
:102a100041013a000b0137001181e900820878007a
:102a2000280890001275780041013700086890006e
:102a3000c2c6b300824f500007003a00110178006f
:102a400064005100800878001000be004f89de004d
:102a5000820178001400370012c7b300824f500083
:102a600003003a00110278006800520005003700a8
:102a7000a2c6b300824f500006003a0091027800cf
:102a800068805200800878005001be004000be00ff
:102a9000050037001180e9008008780010007800f8
:102aa000cf80de006109b900009cbe000294be0028
:102ab000086a900085c6b300854f52000d003200b1
:102ac00025c6b300854f520004003a000000fb0009
:102ad000cf80de006109b9000800370045c7b300a8
:102ae000854f520003003200e6c24200854f52007b
:102af00004003a00cf80de006109b900009cbe00ee
:102b00000294be003802be002803be0028089000d0
:102b1000d1c2b300e00f5200e08f5a00e00f5b001b
:102b2000e08f5b0008003500b81090000118a3008a
:102b300002003200b1c2b300030037000108a30055
:102b40005100320001c2b300017578004c0037001b
:102b500008689000c2c6b300824f500008003a00d7
:102b60001103780064005300800878001002be0052
:102b70006033b8000400be000601be001400370038
:102b800012c7b300824f500003003a009102780050
:102b90006880520005003700a2c6b300824f500083
:102ba00006003a001103780068005300800878009e
:102bb0005001be004000be00050037001180e90052
:102bc00080087800100078008000eb006011b800e9
:102bd000009cbe000294be00086a900085c6b30047
:102be000854f52000d00320025c6b300854f5200bc
:102bf00004003a000080fb008000eb006011b80088
:102c00000800370045c7b300854f5200030032006b
:102c1000e6c24200854f520004003a008000eb00fb
:102c20006011b800009cbe000294be0038109000f5
:102c30000038a300140032003800be002801be0096
:102c4000e00f5000e08f5800e00f5900e08f59006e
:102c50000d00320080c7b30080cf54000300320063
:102c600080c5b30080cf540007003a0028089000c8
:102c700001c3b300017578000000e8000975780011
:102c80000000e800200c980028089000000545008e
:102c90007a0498008940780067003700086990003e
:102ca000c0c4b300804f510006003a009103780081
:102cb00068805300800878005001be004000be00cc
:102cc0000500370011017800640051008008780089
:102cd0001000be00640d0700009cbe000294be0000
:102ce000b8009000280890000100e00002003d00bc
:102cf000d1c2b30008003700b81090000118a3003b
:102d000002003200b1c2b300030037000108a30083
:102d10000400320001c2b300017578000000e80031
:102d2000200c980028089000000545007a049800bf
:102d30008900fb0008007800830007007e00370050
:102d400008699000c3c6b3001180e900834f5100a9
:102d5000220032000a003c00e4c15100834f5100c0
:102d60002500320083c1e800834f51001300320078
:102d7000e8c15100834f51001e003a000a0037009d
:102d800043c7b300834f51001b003200e6c141002e
:102d9000834f510018003200e9c15100834f5100a8
:102da00014003a0005003700800878001000780011
:102db00028649000084878005f0037008008780099
:102dc0001000780018129000cfa2de00612bb9002d
:102dd0000498be000690be005700370080087800b7
:102de0001000780018119000cf91de000288be001c
:102df000510037001180e900800878001000780049
:102e000018149000080878004b0037001180e90082
:102e10008008780010007800cf80de006109b900da
:102e2000009cbe000294be002808900000054500ea
:102e30007a04980081c7b300080078007e04070078
:102e40003d0037000869900050c6b300804f510024
:102e50001a003a00110278006400520080087800dd
:102e60001000be00000c9800110c98008811900012
:102e70000300e00007003d008081eb000001eb0053
:102e8000350c07000001be00880890008100510049
:102e9000080037000001eb002f0c070000817000d4
:102ea0000300320008099000820050000100370042
:102eb00088109000410c98001f0037001180e90035
:102ec00080087800100578007a0498008814900033
:102ed0000900e00004003d000a00780019fb07002b
:102ee0008004780007003700090178008000eb00bb
:102ef0000a007800cb0307000000e0000100320068
:102f00008a045000490c98000b00370028089000f4
:102f10000975780006003700280890000005450074
:102f20000904e00001003a0059c2b300094d7800dd
:102f30000000e800200c98000000eb004f0578002e
:102f40004f04be00000006002f04b000889fbe00a2
:102f50008a9fbe008c9fbe008e1f780000077800fd
:102f600081f79f003e04be002e05be000e109000ab
:102f70000000e00002003d00600020000017980003
:102f80008e00780020fb2f000f0040000004070097
:102f9000e20f50000a003a0030002000400f980075
:102fa000b1c9b3000ff09700814040000023210019
:102fb000e1cf50000d003e00c02221000b00370081
:102fc0000000e0000f00340030002000400f9800a7
:102fd000b1c9b3000ff19700814041008023210067
:102fe000e1cf500001003e0040232100fe00900090
:102ff000b0487800b06878001040780090409800a1
:10300000f30037000000e00005003a0022fb2f002b
:103010000f014100001978008001eb00e700370044
:103020006022b8006033b8000800be000a01be008c
:10303000e40b07000000e00001003d000bf0a200df
:10304000705927009f9897000088b900026a2800ed
:103050001300200006f70700640650009c9f9f00a5
:1030600013003b0063061600c0ff2f000006660039
:103070008c01ea00939f9f00cd2321000800be0031
:103080000a01be00070037000c08a300030032004d
:103090003d02be002d03be00c10c07000c86d1000e
:1030a000e88646000c00e000f7ff3c0018003700ff
:1030b0000c00e00018003200c0ff2f000006660080
:1030c0009c9f9f00cd2321006000b80002002000db
:1030d00003ff2300070037000c08a30003003200a1
:1030e0003d02be002d03be00ad0c07000c86d100d2
:1030f000e88646000c00e000f7ff3c000002be003e
:103100000203be000800be000a01be00b70b0700a4
:103110000004be000205be008e10900060c6b30021
:103120000ff29700804f5200040032006000200030
:1031300062c4b300824f520002003a009f9a970087
:103140006a80420081004000f1b79f0001037800cf
:10315000f30f53000200340037012000f7b79f003f
:1031600000c3b300c0779f0056fb2f000f0343003e
:103170000e007800a0b79f00060778003d003700da
:103180000800be000a01be00560c07000006be0083
:103190007fb1970068015100f2b79f004240a9003b
:1031a0000c0034007b0c07000002be000203be00ce
:1031b0000800be000a01be00ef0c07006022b80044
:1031c00046782d0077192400750c07000004be0016
:1031d0000205be00e80047008e0020000802be0085
:1031e0000a03be00b4b79f00c5b79f00d6b79f00c3
:1031f000e7b79f000c01be00010478000c00370007
:10320000a400200005002000c0fd2f000f0040009a
:10321000ef0207006fa89700ffa897000fb1970073
:103220009fb1970005c3b300056441000001be00d3
:10323000e00f5100e08f5900030034000e07e90051
:10324000e10f4700eeff3a00880078003fb4970096
:10325000cfb497005fb59700efb597000200370035
:1032600000c3b300806078000e07e900fcff3b005c
:10327000688740007fb397000600e0000700340035
:103280006022b8006033b8000800be000a01be002a
:10329000510b07000000e000b9ff3c000e0378006e
:1032a0002fb7970051fb2f008f8040000103530080
:1032b0009f9b970067804300909f9f00020037000c
:1032c0000603e9000000e9000101780082007800af
:1032d00003c3b300b1cf1100f9ff3200909f9f00ec
:1032e0008e11900061c6b3000ff29700814f52001b
:1032f0000300320061c4b300814f520002003a0063
:103300000000e8000a0037001000200051c6b3009a
:103310008ff2970081cf52000500320005407800ff
:1033200050c4b2000080fb000000e9004f00de0046
:1033300083014000868f510001003400860178002f
:103340000300e0001d00350000c3b300868f51006c
:1033500006003d0062c279006940400041c3b300ed
:10336000814f520001003c00694050008300e90099
:103370008100410001003700840178000302e90068
:1033800001037800a142780080cf5200faff32009a
:1033900091c3b300814f500001003a00054be80093
:1033a0000400e00005003d000201e9008301e8009f
:1033b0001f9b97000603e800969f9f008ff39700de
:1033c0008700fb001f9a97000e0078000600070098
:1033d0004f0778004f06be004f05be004f04be00e9
:1033e0002f04b10000000600f0874700889fbe0050
:1033f0008a9fbe008c9fbe008e1f7800000478005c
:10340000814478000205be00040678000b00e0004d
:1034100002003c001b0020004a4a210060c6b300a5
:1034200080cf54000e00320060c4b30080cf54003f
:103430000b00320070c6b30080cf5400030032008e
:1034400070c4b30080cf540081003a00e40f4600fe
:103450007f00350008109000800f56007c003d0072
:103460000c06e80060c6b30080cf540010003200a4
:1034700060c4b30080cf54000d00320038109000bb
:103480000038a30004003a0008109000808f550017
:1034900001003d000b149800081090000c00500033
:1034a0000014980002003b000000eb00001498009c
:1034b00048089000f80090000c00e00026003c0056
:1034c00002c3b300827078000000e800400c98004e
:1034d000881090000100e00003003c00b81090004c
:1034e0000138a30005003200f8009000e2c2b300ea
:1034f000827078000000e800400c980008109000ee
:103500008c00ea00810f500001003d000006ea0037
:103510008c00ea00510c9800000646000c1498003c
:103520008b0f5600010034000b0678006c0c9800dd
:10353000f800900048089000008040000c017800de
:103540008a007800f6f80700081090000c0650007a
:103550007c0c9800900037008c8f550018003d00bf
:10356000008040000b0178008a007800ecf807002a
:103570004808900000804500400c98008b055600dc
:103580005b0c9800881090000100e00003003c00f4
:10359000b81090000138a30006003200f800900037
:1035a000e2c2b30082707800680890000000e80072
:1035b000600c980008109000700c9800760037009e
:1035c000008040000c0178008a007800d4f80700e1
:1035d0004808900000004600400c98008c8555007b
:1035e000881090000100e00003003c00b81090003b
:1035f0000138a30005003200f8009000e2c2b300d9
:10360000827078000000e800400c980008109000dc
:10361000808f55000100340080057800f80090008c
:1036200048089000008040008c0045000b017800a5
:10363000bbf80700480890000b004000400c9800c1
:10364000081090008b0550005b0c9800520037006a
:1036500048089000f80090009a7078000000e80098
:10366000400c9800881090000100e00003003c002e
:10367000b81090000138a30005003200f800900057
:10368000e2c2b300827078000000e800400c9800ad
:10369000081090000000e000100034008b05e900e5
:1036a000808f55000100340080057800f8009000fc
:1036b00048089000008040008a00e8000b01780074
:1036c00097f80700480890000b004000400c980055
:1036d000081090008b0550005b0c9800f8009000db
:1036e0004808900000804000095878000007e80072
:1036f0000c00e00004003500b1c2b30001487800be
:103700008e04780004003700d1c2b300014878006d
:103710008e0478000c06ea007d8557008006eb00d9
:1037200009003700a20020008c007800728057004a
:10373000000107007fb097008fb89700016d7800f7
:10374000000678008d06e8000c00e000f5ff3c0064
:103750000d00e00009003a008e04780000c3b300b9
:10376000805c7800050037008d06e900fc8057007a
:1037700061c07e0002c3b300825c40000d00e00027
:10378000f9ff3c00f80090004808900000804000dd
:1037900080845400690c9800381090007400600018
:1037a000f00f50000e003a00c80890002808900062
:1037b00000804000d808900001004000e808900018
:1037c00001004000f808900001004000a81090009f
:1037d000810f500002003d0000805000300c980026
:1037e0004f0778004f06be004f05be004f04be00d5
:1037f0000f01b10000000600889fbe0000047800a1
:103800000203be0081047800080278008901780074
:10381000120020000600be0012040700890f5000ad
:10382000010032000004eb00080078004f04be00e5
:10383000000006006800fa00889fbe008a9fbe0054
:103840008004780001047800820578000305780080
:103850008400780000f92f000f004000ff030700ec
:10386000d98f9f00fb8f9f000000eb00a09f9f005f
:10387000e88f9f009a84fb000904fb008904ea009a
:10388000cf4cde0050022000800f54000d003200ab
:10389000e18f54000b003a00090178008a0078009b
:1038a0007f889700df89970003000100f08f9f0059
:1038b0000000e000950032002f9897000000e8001b
:1038c000a09f9f000905450050022000800f540072
:1038d000040032000800e000e6ff3a002f9897004d
:1038e0008b0037000000eb00809f9f00f0979f0047
:1038f000e0979f00d0979f00c0979f00b0979f00d0
:1039000007003700a14321000100500000004000e3
:10391000e142210061007800cf989700010070001b
:10392000c09f9f000a04780008057800ba44780018
:103930008900fb00a043210060f807000000e000c0
:10394000f0ff3a00a1c2b30081cf54000e003a004c
:103950008f8897000180e900808f9f001000780019
:10396000b09f9f000000e00005003d000000ea005d
:10397000b09f9f004f9897000020a000c09f9f001d
:103980000804e80010003700b09f9f00880078000e
:103990000000eb0005003700f3ff2700830f500005
:1039a000020032006a02b9000400410001047800fc
:1039b000880078003101fb000203b100e90f5100db
:1039c000f5ff3600b09f9f00e0c2b300984f100093
:1039d000020032000080eb0019003700a0c2b300e3
:1039e000d84f100007003a008f8897000180e90047
:1039f000808f9f0010007800909f9f000804e800cf
:103a0000100037000000eb00909f9f0088007800b6
:103a100005003700f3ff2700830f5000020032003b
:103a20006a02b900040041000104780088007800af
:103a30003101fb000203b100e90f5100f5ff360030
:103a4000909f9f00984478008900fb00604221000d
:103a50001af807000000e000020032000804e80045
:103a6000010037008044eb00a97f9f0080c6b300af
:103a700080cf540006003a0098cf140010003a009e
:103a800066405000a07f9f000804e8000c0037004b
:103a9000c0c6b30080cf540009003a0098cf14008c
:103aa00007003a0067404000d84f100002003a007b
:103ab0006e4050000100370010c7b300a07f9f0088
:103ac0001801fb00c3fb2f008f81410001f92f007b
:103ad0008f80400020f92f000f0040008ffb07006f
:103ae0000000e00009003a00c1fb2f008f80400079
:103af00020f92f000f0040007e0207000000e000c8
:103b0000020035000805e8005aff37000080eb008e
:103b10004f05be004f04be000080fa000000060002
:103b2000030278008201780001017800c1bf210002
:103b300040ff37008002780001037800110009007f
:103b40000203d80080017800830a78000299b90046
:103b50000201530092029800050078000000060060
:103b6000889fbe008a9fbe00800478000104780010
:103b70002c003700c800900068009000808f500033
:103b80000400390008007800ba0007000000e000d7
:103b900037003500004020001800600009003200a6
:103ba000a100200009007800a80007008005780027
:103bb0000b00e00003003200618514000a85450017
:103bc0000400370009007800def7070000057800e0
:103bd0008005eb0048009000e800900080805000d5
:103be0008a8f500002003100010578008005eb004b
:103bf0000a0178008900780049f707004800900022
:103c00000a004000400498000b00e000040032006d
:103c100008007800e20307000000e00014003a000a
:103c20008a8444001904e000d2ff3a00008020009a
:103c3000180060000600320008007800d803070072
:103c4000800078000080eb000100e00009003a00ed
:103c500001c02000988060000000eb0005003200e9
:103c600048009000600498000000eb00010037005d
:103c70000080eb004f05be004f04be0000000600b0
:103c8000889fbe008a9fbe008c9fbe008e1f78005a
:103c900000067800010478000200780083047800b0
:103ca0000881b900020778000200e00042003200fb
:103cb0000800e0004100320082057800c900900051
:103cc00069009000808f50000400390009007800de
:103cd000680007000000e0002900350000402000d7
:103ce000190060000a0032000b017800a1002000da
:103cf0000c0078004b000700800678000d00e00003
:103d000006003200610516000a85460004003700ef
:103d10000b0578008006eb00010037000b057800ea
:103d200049009000e9009000808050008a8f500088
:103d300002003100010578008006eb000a017800de
:103d40008c007800f6f607008a855500490090003f
:103d50000a004000c00498000d00e000040032009a
:103d6000090078008e0307000000e00004003a001c
:103d70000b00e000020032000a064600cfff3700c9
:103d80000080200019006000020032000900780065
:103d90008303070000c02000190060000200320009
:103da00049009000e00498008b05570011000900bd
:103db0008885d800010037000000eb004f0778002d
:103dc0004f06be004f05be004f04be0000000600b7
:103dd000881f78008a9fbe008c9fbe000004780078
:103de0000205be000406be000401be000a00be00bb
:103df0009ff30700008cbe000c01be00e309070022
:103e00000005550081855d002a0498003b04980058
:103e1000080078004f06be004f05be004f04780032
:103e20000000060003003700b0cf1000050032008c
:103e30000201e900800178000200e000faff3a0088
:103e40000000050003007800000006000001eb0000
:103e500000027800b041780081cf510001003a00a3
:103e6000040178000304e000f9ff3a000200780042
:103e700000000600889fbe008a1f780000047800ba
:103e8000c8009000680190000000eb00828f500095
:103e90003c0039001800780022002900020160006f
:103ea000e20f510007003200012020000000e00076
:103eb0000100350001202400008c70000080eb0020
:103ec000300037000200260002006000820f500020
:103ed00009003a0038009000808f50000600390039
:103ee000080078002e030700800078000080eb00b7
:103ef0000100e00023003a001805780000c020000f
:103f00000000650018003a00a8049000600220003c
:103f100008004000808f540013003a000020200069
:103f200047f60700200498000000e00005003a0072
:103f300029049800490498008904e800390498008d
:103f4000080037000a60a0000a0c780040049800be
:103f5000012020008080400031049800400c98002f
:103f6000500c9800ad020700280090005004980003
:103f7000380090006004980000002600180c7000c3
:103f80000000eb004f0578004f04be000000060063
:103f9000889fbe0000047800e68440001900d0002d
:103fa0004500de00f27f2000820f500010003a0032
:103fb000000ceb00990478006f8164002000200061
:103fc0001b003a00210190000200e00018003a00b6
:103fd000110190000200e00015003a0010002000de
:103fe0001100e00012003200200020001000370015
:103ff0000000e00004003a00010078002f030700f1
:104000000000e00008003c00f200280019016100f7
:1040100001fe2300810c710021c02f00010c400023
:104020000080eb0002003700000ceb000000eb000a
:104030004f04be0000000600fc874700889fbe00ba
:104040008a9fbe008c9fbe008e1f780000067800fd
:1040500080c5b30080cf50000a0032007740400096
:1040600080cf50000a0032006940400080cf5000ed
:104070000b003200103c210080bf9f00ae002000ea
:104080000a003700023b210082bf9f000600370074
:10409000133c210083bf9f008e00200003003700e7
:1040a000143c210084bf9f000e0120003c02be0092
:1040b0002c03be000605be000404be0040c6b300cb
:1040c00080cf5000030032006540400080cf500098
:1040d0000b003a00e00f5200e08f5a00e00f5b0047
:1040e000e08f5b0006003d006000b8006011b80082
:1040f000040450008584580006055900878559003e
:10410000e80f57000400320040002000f00f570075
:1041100038003a000100370030002000e00f540062
:10412000e08f5c00e00f5d00e08f5d0004003a006e
:104130008c1090008d0120000100e000060032008c
:104140008e00e900888060008fba9700e5c0780093
:10415000f1ef9f007d012000800078008100e900e0
:10416000050033008b05d1000a85d3008984d30074
:104170000884d300f9ff3700089ebe000a96be00ef
:10418000120037008d06e9008e00e900848060008f
:104190000fb99700e2c1780082fd2f000f014100a6
:1041a00003f17e00800078008100e9000500330003
:1041b0008783d1000683d3008582d3000482d30095
:1041c000f9ff3700049ebe000696be003c02be000a
:1041d0002c03be00e00f5200e08f5a00e00f5b009e
:1041e000e08f5b008b0034000d00e000e5ff3c0039
:1041f000880037000c68900081c6b300814f5000e2
:104200000b00320006003c000004e0000800320011
:10421000e6c05000814f50004e003a0004003700c5
:10422000c1c6b300814f50004a003a002100370058
:104230000800e00004003a000c1090008d012000fe
:104240000000e00006003200110009000e84d800d2
:104250000fb99700e2c07800f1ef9f007d012000c8
:10426000110009000e84d8000a003700110009006f
:104270000e04d8008d06e9000e81b9000204540036
:104280008fb8970061417c0081fd2f008f80400036
:1042900082f07e00000478000800e0000200320096
:1042a0000d00e000f1ff3c00cfc4de00614db9001d
:1042b00025003700e00f5400e08f5c0004003a0056
:1042c0000c1090008d0120000000e000070032007b
:1042d0006171b9000800be00a90807008fb99700f6
:1042e000e3417800f3ef9f007d0120006171b90088
:1042f0000800be0055f307000b0037006171b900dc
:104300000800be005af207008d06e90000f1b9006e
:10431000020454000fba9700e4427c0084fd2f0091
:104320000f02420005f27e000004be00e00f5000c4
:10433000e08f5800020032000d00e000efff3c006b
:104340004fcdde008a057800089ebe000a96be00aa
:1043500030003700e00f5400e08f5c00e00f5d009c
:10436000e08f5d0004003a000c1090008d012000e9
:104370000000e000090032006172b900612bb90051
:104380000800be000a01be00e0f307000fba970064
:1043900064427800f4ef9f007d0120006172b90053
:1043a000612bb9000800be000a01be00d0f307006f
:1043b0000d0037006172b900612bb9000800be0022
:1043c0000a01be00d5f307008d06e90000f2b9002e
:1043d000040454008fba970065427c0085fd2f00cd
:1043e0008f82420084f27e00009ebe000296be00d4
:1043f0003c04be002c05be00e00f5400e08f5c00c2
:10440000e00f5d00e08f5d00020034000d00e00071
:10441000e8ff3c00e80f570010003a003c10900005
:104420000038a3000d003200f78f560006003e0052
:1044300085fd2f008f824200e5c07e0000c3b300df
:1044400080cf5000050032008d06e90002c3b300a2
:1044500081fd2f008f80400082f07e007881160061
:10446000420e98007c00900083fd2f008f81410058
:104470008d8041002af507004c0890008c109000b8
:10448000810f500006003d0000805000300e980063
:104490003c1090000040a100301698000f0037003b
:1044a0000100e0000d003d00bc109000f4806000b1
:1044b000f08f500009003a002c119000ac089000d9
:1044c000810051003c099000828050000080500023
:1044d0004240a90001003400300e98004f077800d8
:1044e0004f06be004f05be004f04be00cf01b10015
:1044f000000006000400fa00889fbe008a9fbe00ec
:104500008c1f78000004780001067800a814900041
:10451000280890008084540038089000808454005b
:10452000480890008084540058089000808454000b
:1045300068089000808454007808900080845400bb
:104540000002220090bf9f0000032300a0bf9f0035
:10455000381090000028a30015003a000900e00080
:1045600013003400090578008a057800e20f550031
:10457000010036002b002000c80190000b017800dc
:10458000ee8057006800900003000100600498006e
:104590000000e000aa003200181090000b0040005c
:1045a000101498000b0555004240a900eeff3c0096
:1045b000280990000200e0000c003400c8019000bf
:1045c0008c007800680090000300010060049800ef
:1045d0008080eb000000e0009a003200981090000c
:1045e000280890000080400010149800380d9000ba
:1045f0000a00e000110034008a057800e20f55003f
:10460000010036002b002000c80190000b0178004b
:10461000ec805700680090000300010060049800df
:104620000000e00086003200181090000b004000ef
:10463000101498000b055500edff37000869900035
:10464000c808900050c6b300804f510008003a00df
:104650000100e000150034005802900008099000a5
:1046600098099000680090000400010007003700de
:104670000100e0000d003400c80190000101780045
:10468000f8009000680090000300010060049800aa
:104690008080eb000000e0006a003200981090007b
:1046a000480890000080400010149800580d9000b9
:1046b0000a00e000110034008a057800e20f55007e
:1046c000010036002b002000c80190000b0178008b
:1046d000ec8057006800900003000100600498001f
:1046e0000000e00056003200181090000b0040005f
:1046f000101498000b055500edff37000869900075
:104700006808900051c6b300814f51000d003a0077
:104710000000e0001c00340078019000c808900000
:10472000010141006111b800828fd2008381d20063
:10473000580290008000780068009000040001009a
:10474000090037000000e0000f00340078019000fd
:10475000c808900081004100c80190000001780065
:104760006800900003000100600498008080eb0066
:104770000000e000330032009810900068089000bc
:104780000080400010149800780d90000a00e000ae
:10479000110034008a057800e20f55000100360050
:1047a0002b002000c80190000b017800ec8057001e
:1047b0006800900003000100600498000000e00021
:1047c0001f003200181090000b00400010149800d9
:1047d0000b055500edff3700381090008000eb000e
:1047e0000028a300170032000900e0001500340083
:1047f00009057800e28f5400010036002a002000ed
:10480000c80190000a017800ee805700680090000f
:1048100003000100600498000000e000080032007e
:10482000181090000a004000101498008a84540068
:104830004240a900eeff3c008000eb000100370081
:104840008080eb00010078004f0678004f05be0025
:104850004f04be000080fa00000006000108780046
:1048600000000600e6874700889fbe008a9fbe00c2
:104870008c9fbe008e1f780082bf9f0004047800ca
:10488000029ab900f4b79f000400e000590032001a
:104890000fb997000200e000570032000006be008a
:1048a00004077800c800900068009000808f5000d6
:1048b00004003900080078006efd07000000e000e9
:1048c0003b00350000402000180060000a00320064
:1048d0008e017800a20020000c00be009e0507009b
:1048e0000005be0000807500070032008c045500f2
:1048f0008904e800050037008e0478000a002000d3
:104900000b002000010037008e0478004801900061
:104910006800900002005000890f50000300310031
:10492000800478000a0020000b0020006111b8000c
:10493000828fd2008381d200090278000c00be0071
:104940005c05070009075700480090000900400077
:10495000400498000a8575000400320008007800c1
:104960008f0007000000e00011003a000e00e00098
:104970000f0032006148b800808fd2008180d200e1
:104980000000780000f0a1008c01d0000001d000f0
:10499000028641004220a80081864e004200a90004
:1049a0004220ae004200a8000c86d300bdff3700b5
:1049b000008020001800600002003200080078002b
:1049c0007700070000c020001800600002003200dd
:1049d000c8019000630498007fb097000e07500054
:1049e0000fb99700110009000287d80080017800f4
:1049f000010037008001eb00030078004f077800ca
:104a00004f06be004f05be004f04be006f00b10050
:104a100000000600005b22009c003700881f780021
:104a2000684a21001804e00003003a00f9ff07007b
:104a300020c0b300004c78004f047800000006004e
:104a4000889fbe000004780008007800540007002a
:104a5000800478000004200018006000020032008a
:104a60002800900011f307000000eb0020049800dc
:104a7000384090000004e000050035000000fb0015
:104a800098ef07000000e000010032008084eb0096
:104a9000181090000000e000080032009aef0700b4
:104aa0000000e000010032008084eb00181090004c
:104ab000fef207000000eb00101498000008200030
:104ac00018006000150032000001eb006000b80023
:104ad000c32121000202d00063027a00880f520035
:104ae00005003a000000400081804800008041003d
:104af0000008eb000600370061004000e08048003d
:104b00000201e800e80f5000e08f5800f0ff3a0083
:104b100008007800e5f207000e003700000c78006e
:104b200000c0eb0030449800600220000800400004
:104b3000200498004004980050049800400c98000d
:104b400060049800500c98007004980076004400af
:104b5000000c9800090078004f04be000000060019
:104b6000881f78000004eb006140b800e2ff2f00ce
:104b7000f3ff2f0085060700a222210062007800c3
:104b80000000e00001003200adff07000804e8006b
:104b9000e80f5400f4ff3a004f04780000000600cc
:104ba000889fbe00000478000800e0000f003a0073
:104bb0008004eb00090478008800d000c0212100a7
:104bc000610078000000e00004003200f4ff0700fc
:104bd0000000e00001003d008084eb000804e800d4
:104be000e80f5400f4ff3a002500370000002200cf
:104bf000180060008004eb0021003200a80490003f
:104c00000f00370009015100384090000000fb0000
:104c10008900780066ef07000000e00007003c0014
:104c2000280090004004980060049800500c980000
:104c30001890a0008084eb001100370080844400ad
:104c400048019000828f5400eeff39002800900048
:104c5000400498009800780002c0200002816000a3
:104c600001003a003800900001e8a3000200320081
:104c70006004980001003700500c98008004eb009d
:104c8000090078004f04be000000060021b3200098
:104c90000100e00008003200b1a480000100e00043
:104ca000050032008100e900b1a488008100d00035
:104cb000a2a4800000b1780000000600e6004000d9
:104cc0001101780005002800850261006f01610074
:104cd0008208780002003200120020001100370024
:104ce000a0019000120020000300e0000d003a0037
:104cf000900190000300e0000a003a001000e0007c
:104d000008003a0036003700640340009608780037
:104d100080017800530b780090097800040878002f
:104d200070015100110278000400e000f6ff32002b
:104d30001300370064024000140378004f33de0094
:104d4000838141008308730080017800d3037800d9
:104d5000cf3bde001403780006034300068a73008d
:104d60001302780004024200100378004f33de0083
:104d70008609720090017800038841000201e90071
:104d800091017800ef8f5100eaff360010003700e4
:104d900080017800530378004f33dd001002d1000a
:104da000040873006402400094037800cf3bdd00e8
:104db0001303d10086897300110378004f33dd009f
:104dc0009401d100030a73009108d1000201e800a8
:104dd00091017800ff8f5100edff3e00ef886100e8
:104de000918872000200780000000600881f780099
:104df000000478000040eb00005498003800900058
:104e00001040780091c6b300814f5000220032005c
:104e10000e003c00eec05000814f50008800320070
:104e200005003c0051c2b300814f500069003200c0
:104e300081c5b3001300370031c6b300814f500065
:104e4000130032008140e8000e00370001c7b300b4
:104e5000814f500007003c008140e900814f500025
:104e60000d003d008140e900814f500078003a007c
:104e70000c00370051c7b300814f500006003200cc
:104e8000e3c04000814f500071003a00020037003b
:104e90008000eb006b003700080078006f0007000f
:104ea0006c003700e8489000100020000104e0008a
:104eb00068003a00f8489000c3c6b300280190008b
:104ec00083cf5000340032000a003c00e4c151009e
:104ed00083cf50002a003200a0c6b30080cf50001c
:104ee0001a0032006840500080cf500031003a0074
:104ef0000a00370043c7b30083cf500020003200c0
:104f0000a0c7b30080cf50001900320069405000a4
:104f100080cf500027003a0007003700280090009b
:104f20000080e9002004980010007800084c9000f0
:104f30000848780025003700280090000080e9002c
:104f40002004980010007800030037000281e90077
:104f5000220498001200780048029000cfa2de00e0
:104f6000612bb9000498be000690be001700370000
:104f70000281e90022049800120078001100370035
:104f80000281e90022049800920078004804900011
:104f9000880878002f0037000281e9002204980079
:104fa0009200780048019000cf91de008288be0018
:104fb00028003700280090000080e90020049800b5
:104fc00010007800480490000808780010002000c5
:104fd00020003700480090000000e80040049800de
:104fe00098017800120020008000eb00180090006b
:104ff0000300010080007800100020005202200011
:10500000828f50001300320048009000e18f400072
:10501000070032000000e900400498009801780081
:105020000001eb00180090000300010008003700a9
:105030000000e900400498000100780005003700f6
:105040008080eb00080078007f0107000100370036
:105050000000eb004f047800000006002f02b000b3
:10506000889fbe008a9fbe008c1f78008e1f78002c
:1050700000047800680090000000e00001003c009f
:10508000f0ff27000000e90050049800480090005d
:105090000000e80040049800980178001200200009
:1050a0008000eb001800900003000100000578006c
:1050b000b0022000800f5500030032000080e8009d
:1050c000800f550015003a00cad79f00d800900005
:1050d0008100e90051049800480090000900330065
:1050e0000000e800400498009801780012002000b9
:1050f0008000eb001800900003000100000578001c
:10510000030037000000e800400498000085eb0031
:105110005efd2f000f074700020037004efd2f00f5
:105120000f074700380090009000fb001039210065
:1051300062f207001139210001005000a13821005e
:10514000e14578008b05fb0000032000800f55002f
:1051500033003a00d80090008100e9005104980023
:10516000480090000c0033000000e8004004980064
:1051700098017800120020008000eb0018009000d9
:10518000030001000005780080072000800f550013
:1051900008003200040037000000e80040049800d6
:1051a0000085eb001b00370080052000800f5500b4
:1051b00018003a000b00e00002003200f08f5500aa
:1051c00002013a00d80090008100e90051049800e3
:1051d00048009000090033000000e80040049800f7
:1051e00098017800120020008000eb001800900069
:1051f0000300010000057800030037000000e8000c
:10520000400498000085eb000b0120000046eb00f5
:105210000d0037000b00e000e9003200eb00370022
:105220000046eb00a90020000b00e0001a0032004d
:10523000ea8f550002003200e88f550002003a0064
:105240008b04780014003700690120001200370039
:10525000d80090008100e9005104980048009000b7
:10526000090033000000e80040049800980178002d
:10527000120020008000eb001800900003000100e5
:1052800000057800030037000000e80040049800a3
:105290000085eb001cc0b30000032000800f550008
:1052a000ebff32000c04e00018003200005f7800d1
:1052b000160037006d805700800f57000100310045
:1052c0000a5f7800d80090008100e900510498003e
:1052d00048009000090033000000e80040049800f6
:1052e00098017800120020008000eb001800900068
:1052f0000300010000057800030037000000e8000b
:10530000400498000085eb001cc0b300e10f45008d
:105310000f003200090178008a00780090392100de
:10532000c0fa07000000e000e2ff3a0048009000e9
:105330000000e90040049800980178000001eb00ab
:105340008a00780018009000030001000300370075
:10535000480090000000e900400498000c04e000c0
:1053600008003a008004eb0040fd2f000f004000d1
:10537000800f57008b003a00e10f450089003a008a
:1053800087003700004feb006848900019002000ac
:105390000004e00083003a003800900010407800dc
:1053a00041c6b300814f500003003200e5c0400009
:1053b000814f500035003a000b0178008000eb006f
:1053c00040fd2f000f0040009601070014c0b300fd
:1053d00004549800784a9000c6c6b300a802900012
:1053e000864f5200240032000a003c006443530000
:1053f000864f52001c00320006c3e800864f520060
:105400001200320068435300864f52005e003a009b
:105410000a00370046c7b300864f52001200320020
:1054200066434300864f52000f0032006943530029
:10543000864f520054003a00040037008582e9008c
:105440002504980015027800380037008582e900ad
:105450002504980015027800009abe000292be0052
:10546000190020004f0037008582e90025049800cc
:1054700015027800480037008582e900250498006d
:1054800015027800008abe00f5ff37000b01780096
:105490008000eb0040fd2f000f004000b901070025
:1054a0000954980038039000a802900004c7b30084
:1054b000964f12002a003200784a9000c6c6b30008
:1054c000864f52002b0032000a003c006443530018
:1054d000864f52002200320006c3e800864f520079
:1054e0001900320025c6b300854f520026003a004d
:1054f0000a00370046c7b300864f5200180032003a
:1055000066434300864f52001500320015c7b300b2
:10551000854f52001c003a00060037002802900018
:105520000482e9002404980014027800004a7800fc
:10553000cbff3700280290000482e9002404980081
:1055400014027800c4ff37008582e9002504980022
:1055500015027800009abe000292be0011003700ca
:105560008582e9002504980015027800000a780079
:105570000c0037008582e9002504980015027800a8
:10558000008abe0007003700280290000482e9006c
:105590002404980014027800000a7800b0ff370055
:1055a0008a047800090078004f0778004f067800d9
:1055b0004f05be004f04be002f02b10000000600e0
:1055c0008b0020001cc0b3001dff37001cc0b300bf
:1055d00017ff370011003700800178001042780073
:1055e000d5c2b300d3cf120008003a00814f520059
:1055f00003003e00a041900083cf50001000360011
:10560000e30140006301510003003700814f520065
:105610000b0032000201e90003007800e20f5100a4
:10562000edff3e0003003700b0cf10000500320050
:105630000201e9000200e000fbff3a000000050063
:105640001000050010000500f0874700889fbe008d
:105650008a9fbe008c9fbe008e1f78000004be0093
